:020000024000BC
:100000006FC0822600000000001801180028012897
:100010000228032800290129022903290429052986
:10002000062907290829002A012A022A032A042A64
:10003000052AA62A9CCA0600A41E04006A02002003
:10004000B40200202602002014020020DC0100205F
:10005000FC1F0400282004006E2104007E230400FD
:1000600026240400181D04003C1C0400AE1C0400DF
:10007000681C040018290400FC030020D21F04009F
:10008000D4250400166906000E6B0600866B060078
:10009000621F0600AA1F0600DA5F05002E53050046
:1000A000D06206000A26040036290600D2E00400C9
:1000B00060E10400B8E10400DC31040028320400EF
:1000C00092300400CC9C0400869704006AA60400C9
:1000D0003AAA0400E6AD0400A6890400448904009D
:1000E000308D0400F28904001A8904009E890400FE
:1000F000CC880400768A0400CE8A04007E8A04003C
:10010000828A04001E8B0400D68A0400088B040037
:100110002C90040034900400728A04007A8A04004F
:100120001A8B040030900400CC8B0400A2910400D0
:100130002EBC0400ACBC0400EABC0400309F0400E8
:10014000489F0400849F0400FC8204001A84040079
:100150009084040072500400124B040006780400DE
:10016000924B0400327304002EA70600589F06002D
:1001700062A4060092BC060058BB0600E8BF060059
:10018000A0BF0600E0BF060090C006005C8D060020
:1001900020C0060096B20600BCB20600E4B206001B
:1001A00000C1060052B90600E8B8060070C106009A
:1001B000F88F060094900600BC9006005E90060042
:1001C000D84406004C2E060074320600AA2F060002
:1001D00076390600726306006C620600908D060098
:1001E000E02A0400D2200600162906000E2A060086
:1001F0003C590600EE590600B45B060034A3040027
:10020000B0430600FE39060052400600C03C06001E
:10021000002E0600000600209A2106000CC00600F1
:10022000A4BF0600DCBF0600D8BF06002A230400D6
:1002300082A0040014C00600D2460600384806001A
:10024000B4480600C8A4060010C0060018C0060086
:10025000BA5205001CC00600C00F00207A1400200E
:10026000A8A4060048A606007E4406000000000080
:10027000000000000000000000000000000000007E
:100280006373B60082801C419105110523AEF5FE13
:10029000C5BFB7270020372700209387879C130707
:1002A00087F66373F700828023A007009107D5BF0C
:1002B0005DCDAA870145D5CD8D07C207C183F19BCE
:1002C000C207C18313074003636CF702372700207E
:1002D0000325079D372700208326879C6397A60266
:1002E00037270020032747BB014541C74111C207FB
:1002F00006C60545DD8D0297B24001454101828069
:10030000372700200325C79CF1B70357650031EF5D
:1003100003574500636BF704B72600203306F74008
:100320002148938606BC6378C8028328050003D859
:100330006600138687001D8F2A9661172312E60038
:10034000232016012313060010C12312F500130702
:1003500088FF2393E6002313B50083D566002105AB
:10036000B387F5402393F6008280084185BF01459D
:100370008280828009CDB727002003A3079DB7277D
:10038000002083A8879C81469A8763E317018280B7
:1003900003A807006369F50A6367A80A1387870043
:1003A000E367E5FE03D66700216705076319E600EA
:1003B00037260020034746A90507230AE6A8372663
:1003C0000020130506BC83D547000357650023931F
:1003D0000700130606BC2E97420741832313E5004E
:1003E00063876702372500200325C59C6301F5025A
:1003F00003D5660009ED83D7460023A00601210737
:10040000BE95A1052392B6002313E600B687984354
:10041000E30F17F7B726002083A6C69CE309D7F69B
:1004200083566700ADF683D64700835547001843CF
:10043000A106AE962392D70098C383576600A10702
:100440002313F6008280BE86C28781B719CD91CD75
:1004500009CE81473387F500834607003307F5004F
:1004600085072300D700E317F6FE828019C991C9DA
:1004700009CA910583A7C5FF11057D16232EF5FE38
:10048000C5BF828001C919C62A960505A30FB5FE0E
:10049000E31DA6FE828081473307F50003070700AE
:1004A00019E33E8582808507C5BF01112E8626CAC5
:1004B000AA84131506019305F004418122CC06CECF
:1004C00032C6FD332A8401C53246A68541372285CE
:1004D000F2406244D24405618280854715C18DC1D6
:1004E00005C28147B306F5003387F50083C60600D1
:1004F000034707006398E6008507E315F6FE854786
:100500003E8582808147EDBF9307F6FFBE952A9610
:100510006313C5008280FD1583C715000505A30F71
:10052000F5FEFDB7AA87014581CF09CE3E96850726
:1005300003C7F7FF6317B700E39BC7FE054582803B
:10054000828001458280797126D2B724002022D48E
:1005500003A4C49E06D64AD04ECE52CC56CA5AC820
:100560005EC662C455C8372A002037290020B72943
:1005700000209384C49E814BB72A002037CBC90149
:10058000130A4AB8130909BC938949C08357240048
:1005900091EF5C4463990B009CC0032CC40022853E
:1005A000D13B6284B9A823A6FB00C5BF83A74A9E9E
:1005B00082971C443307F5406376F50003A7490092
:1005C0001D8F2A979306FB3763EBE6062328090065
:1005D0008355240003450400972004E0E78040C9C8
:1005E0005C405844B1C70C4403A64900AE97BE8690
:1005F00063E4B70063E4C700B386C74014C4A28BAA
:100600003A8449F4B7270020938707BC984B894662
:1006100063FBE604791798CBB250225492540259E6
:10062000F249624AD24A424BB24B224C4561828027
:1006300063940B0098C095B723A6EB00B9BF0327BE
:100640004A0219CB63EDA7003385A7408327090130
:100650006374F5002328A900A28B40445DB703A76B
:100660004900BA97D5B723A807007DB701114AC83A
:1006700037290020832789BE06CE22CC26CA4EC643
:1006800052C4130989BE81C7829723200900B72469
:100690000020938784EA83C75700938484EA858B7C
:1006A0008DC3A382040083C774001547637BF700E2
:1006B000EF00B04C83C77400F5178A07CA979C43B4
:1006C00082978327890091C382973724002093075C
:1006D00004BC03C61700B729002003A7899D130493
:1006E00004BC9389899D8347040093961700BA96AA
:1006F00083D60600C9CE8347040063E2C70A832776
:100700000900230004006390071083C7940081CF81
:1007100083C7740093F7F70F99E7A3840400972029
:1007200006E0E780C016B727002083A7479EE1CFE9
:10073000B727002083A787C01CC83135B727002002
:10074000938747B8D85361C383C757011848636C70
:10075000F70A83C7740015476367F70AB7270020B5
:10076000938747EE83C7C700918BD1EF8346140070
:1007700003A6090063C1D70A6244F240D244424949
:10078000B249224A056117D306E06700E393850763
:1007900093F7F70F2300F400E3E7C7F4A9BF860738
:1007A0003E97835507002310070003450400B72731
:1007B000002083A7079F13172500372A0020BA9728
:1007C0009C43130A0A9E23100A00829783570A004B
:1007D0000347040093C7F7FF7D8D9317170003A706
:1007E00009003E97835707005D8D2310A7008347BC
:1007F000040081C785072300F400034704008347F2
:100800001400E37EF7EEF2406244D2444249B2491A
:10081000224A056182801397170032970357070019
:100820007DF3850781BFAD6737C70040BD0723262D
:10083000F7200F100000B7270020938707BCC84F90
:1008400083278726BD66BD0693C7F7FF99836A0590
:100850002326D7205D8D82804111B7170040985F15
:100860003AC6945F3247E39CE6FE324541018280FE
:100870001305F00F828003278511630007124111D1
:1008800022C406C68347C5008345E5042A8493F73E
:10089000C70F2306F500834697000356C70013953C
:1008A0008601618563F1C508635A05060345870023
:1008B00093F6F607A304D700054693E627006314D2
:1008C000C50093E617002306D4005C4389075CC388
:1008D000A30AB400032504112E864C430905BD3636
:1008E0008327841103465401D44303D7C700B2962B
:1008F000118FD4C32396E7008947A30DF400B727CF
:1009000000200347640383C767B96378F70483470C
:10091000C40093E707012306F40081A093E71700C2
:100920002306F40075B79376F60F635D0502034561
:100930008700854513E627006314B50013E617000A
:100940002306C400A30AD400A30407008547A30D0F
:10095000F400832784119C43DDF3B2402244014517
:100960004101828093E717002306F400A30AD40014
:10097000A3040700032504114C430905C13C832748
:10098000841103465401D44303D7C700B296118F94
:10099000D4C32396E7008D475DBF05458280B72706
:1009A000002083A7C7AB411122C406C6858B2A84C9
:1009B000DDEB4165130525F5977005E0E78000CA7A
:1009C0005DC18347A5002315F50083270412B5E711
:1009D0002320A4122322A41285472311F4042320E8
:1009E00005008347640154412316F5000347D400F2
:1009F0002304E5000547A304E5003727002003276B
:100A000007EC1385170215811C437D151375F50F2F
:100A10009CC25C43DCC21C479CC65C47DCC61C4BCA
:100A20009CCA5C4BDCCA1C4F9CCE5C4FDCCE19CD03
:100A30009386060213070702C1BF8327441288C3A7
:100A4000835724042322A412850741BFB72700201F
:100A5000938707D803D7870005072394E700B240A0
:100A60002244410182808347C400230904000545D4
:100A700093C747002306F400DDB78347850193F74A
:100A8000E70FDDEB83479501C5EB03462501834660
:100A9000C50009CA3727002083456503034777B996
:100AA00063E7E50013F7060149CB014709C6C18A90
:100AB0000357651C81C68356A51C36973DCFB727C3
:100AC000002003D5C7C01307C71237460F00B33540
:100AD000A702411113060624814622C426C206C677
:100AE0007D543305A70297C006E0E780E0A8B7274A
:100AF000002083C7D7B9B384A700B727002003A776
:100B000087E18327070963F387003E84184375FB59
:100B1000B727002083A7479E829781476364A4007C
:100B2000B307A440B2402244B3B7970093C717005D
:100B300092443E854101828081473E858280B7276D
:100B4000002003A7C7AE7C53FDFF8280797126D2B7
:100B500006D622D44AD04ECE52CC56CA5AC85EC609
:100B60008347550303447513AA843E941374F40F0A
:100B70009307400263F687001304B4FD1374F40F67
:100B800003AA841383AAC413A38B841222865285DA
:100B9000D68597C006E0E780A098058915E503CBC8
:100BA000D41201498149337B6403930B50024A8676
:100BB0005285D68597C006E0E7808096058915C5E1
:100BC000639169031374F90F238B8412B25022547A
:100BD00092540259F249624AD24A424BB24B4561A1
:100BE00082808509E20993D989410509E31179FDDC
:100BF000E1BF8327850903560504797193D6070160
:100C0000BD8EC206C182358E13577640935756402B
:100C1000898B058B5D8F93573640918B5D8F9357F2
:100C20001640A18B5D8F93171600C18B5D8F9317B4
:100C3000360093F707025D8F931756009355860091
:100C400093F707041E065D8F1376F60F518F93D727
:100C5000554013D63540118A898BD18F13D67540F4
:100C6000D18F13D61540218AD18F13961500418A52
:100C7000D18F1396350013760602D18F1396550047
:100C8000137606049E05D18F93F5F50FCD8FA2073D
:100C900045465D8F3307C70222D42A8426D252CC20
:100CA00056CA032A8413832AC4135AC806D6369711
:100CB0004207418393577740135557400989858BE5
:100CC000C98F135537401189C98F13551740218992
:100CD000C98F131517004189C98F13153700137574
:100CE0000502C98F13155700935587001375050426
:100CF0001E07C98F1377F70FD98F13D5354013D738
:100D000055401189098B498F13D57540498F13D5EB
:100D100015402189498F139515004189498F1395F5
:100D2000350013750502498F139555001375050499
:100D30009E05498F93F5F50F4D8F2207D98FB38705
:100D4000C7024AD04ECE5EC662C4B697C207C18300
:100D500013D7774013D557400989058B498F13D591
:100D600037401189498F13D517402189498F139531
:100D700017004189498F1395370013750502498F74
:100D80001395570093D58700137505049E07498F67
:100D900093F7F70FD98F13D5354013D755401189E5
:100DA000098B498F13D57540498F13D5154021897B
:100DB000498F139515004189498F13953500137597
:100DC0000502498F13955500137505049E05498F3B
:100DD00093F5F50F4D8F2207D98FB387C7021306FE
:100DE00050025285D685B697BD8E93940601C18078
:100DF00033F6C402137BF60F97B006E0E78040722B
:100E000005890DED8347D41201498149B3849702C6
:100E1000130C5002C1804A865285D68597B006E0F1
:100E2000E78000700589937BF90F11C56386340351
:100E3000850993F9F90F0509E31F89FD230B641355
:100E4000B250225492540259F249624AD24A424B59
:100E5000B24B224C456182805E8BCDB7797122D432
:100E600006D683C735002E8423160100A307F100A0
:100E700083C74500100802C02307F10083C755004F
:100E80008A8502C2A306F10002C402C802CA02CCCB
:100E900002CED5220347F1018347040001456310C8
:100EA000F7020347E1018347140001456319F70086
:100EB0000345D101834724001D8D13351500B25021
:100EC0002254456182800111B727002022CC03A45F
:100ED00087E426CA4AC84EC606CEAA84130925004E
:100EE000854915C083C7140003473400858B63040C
:100EF000F700405CFDB71946930544004A85EFF0C2
:100F0000CFDDE31835FF2285F2406244D2444249E6
:100F1000B249056182804111B727002022C403A491
:100F200087E426C24AC006C693042500054901E8A5
:100F30002285B24022449244024941018280A68522
:100F40001305A402213FE30525FF405CCDB7411105
:100F5000B727002022C403A487E426C24AC006C6DD
:100F600093042500054901E82285B24022449244B9
:100F7000024941018280A6851305A401C535E30518
:100F800025FF405CCDB7011122CC604126CA4AC87A
:100F90004EC652C406CEAA841D4A1309650585496A
:100FA000BC446364F400054581A803C7D4008347AB
:100FB0004400631B470503C784026304F700004035
:100FC000C5B70347540083C75405E31AF7FE194613
:100FD000CA8513056400EFF04FD0E31235FF0347D5
:100FE000C40083C79402E31CF7FC0357E40083D7D3
:100FF000A402E316F7FC0145F2406244D2444249A0
:10100000B249224A05618280E31BF7FA0347540084
:1010100083C75405E315F7FA1946CA85130564001A
:10102000EFF0AFCBE31D35F9F9B70111B727002079
:1010300022CC03A407E426CA06CE2AC42EC68544C1
:1010400019E40145F2406244D2440561828083473D
:10105000910003471400858B6304F7000044CDB76B
:1010600019469305A10013052400EFF00FC7E317FD
:1010700095FE0545C1BFB72600209387C6AD9843AE
:1010800013080010232007010100010001000100E6
:101090009C439386C6AD23A0070003471500034871
:1010A000250022074208429703480500429703485B
:1010B00035006208429798D70347550003486500FA
:1010C00022074208429703484500429703487500AB
:1010D00062084297D8D7034795000348A500220726
:1010E000420842970348850042970348B5006208CA
:1010F000429798DB0347D5000348E50022074208E2
:1011000042970348C5000345F500429762052A97B8
:10111000D8DB03C7150003C52500220742052A971F
:1011200003C505002A9703C5350062052A9798CFA5
:1011300003C7550003C56500220742052A9703C56A
:1011400045002A9703C5750062052A97D8CF03C7C3
:10115000950003C5A500220742052A9703C585000F
:101160002A9703C5B50062052A9798D303C7D5000F
:1011700003C5E500220742052A9703C5C50083C5BC
:10118000F5002A97E2052E97D8D3D843759BD8C38C
:10119000D84313671700D8C398431367170098C341
:1011A00098425C43858BD9E31C4F01452300F60030
:1011B0009C429C4FA183A300F6009C429C4FC1839C
:1011C0002301F6009C429C4FE183A301F6009C4260
:1011D000D84F2302E600D84F2183A302E600D84F60
:1011E00041832303E600D84F6183A303E6009853AD
:1011F0002304E60098532183A304E6009853418317
:101200002305E60098536183A305E600D85323061F
:10121000E600D8532183A306E600D8534183230771
:10122000E600DC53E183A307F600828001008DBF56
:10123000B726002003A706AE01114AC81C5F4EC6A0
:1012400006CE998322CC26CA858B938906AE372990
:101250000020ADCF1C5F37240020930484EA93F76D
:10126000F7F91CDF930784EA83C7670013070008B8
:101270006319F7008327C9AD9C4393F707042383C1
:10128000F400834784EA93F7070489CFB727002047
:1012900083A7479E829788C8834784EA93F7F70B12
:1012A0002304F4EA83C7440093F7070485E38547E2
:1012B000A382F400B727002083A7C7AE096798C7A9
:1012C000130700FC2382E400D844F8D383A7090065
:1012D000985F1183058B19CB985F85463D9B98DFFE
:1012E00037270020130787EA2302D700985F1D8362
:1012F000058B01CF985F1377F7F798DFB7270020AA
:10130000938787EA05472382E7008327C9ADD8433F
:101310000583058B19C7D843759BD8C3D843799BE0
:10132000D8C3F2406244D2444249B2490561828046
:10133000397106DE16DC1ADA1ED82AD62ED432D23D
:1013400036D03ACE3ECC42CA46C872C676C47AC2BD
:101350007EC0F93DF250E2525253C2533255A2556B
:10136000125682567247E2475248C248324EA24E47
:10137000124F824F216173002030B727002083A6CF
:10138000C7AEB7270020938787EA03C70700058BFE
:1013900011C723820700A3820700828003C71700BA
:1013A000058B65FBF85275F303C75700EDB7372877
:1013B0000020032708AE1C5F9583858BD1E709C603
:1013C0001C5BBD832300F60085CA832708AE985BAB
:1013D0004607935767016356070093E707C0C207A4
:1013E000C18303970600C207C18709C7BA97094797
:1013F000B3C7E7022390F60037270020130787EAD8
:1014000095C9834715009DC70346670093869700DB
:101410008947137606041DC63695834605000546A2
:10142000994793F5F606639FC500E206E186B94742
:1014300063CA0600832708AE9C5FED838D8BA305EE
:10144000F70081473E8582808547EDBF411122C468
:1014500006C63724002026C20327C4AE2DE9AE8776
:101460007453FDFEB7240020938484EA3E85B28540
:1014700023810400971006E0E780A015B72700201D
:1014800083A707AEB70680009843558F98C3D857F7
:10149000719BD8D78327C4AEA3820400A380040025
:1014A000094798C38326C4AEB7270020938787EAED
:1014B00003C72700058B19E703C73700058B59C7FA
:1014C00023820700B24022449244410182808D472A
:1014D000631FF500B727002083A707AEB70680007B
:1014E0009843558F98C3D857719BD8D765BF854708
:1014F000E31AF5FA5447F977FD17F58F5CC70F101B
:1015000000008327C4AE0967130600F898C7372781
:101510000020130787EA2302C7003727002003268D
:1015200007AE184231830D8B11E713076019F8D30A
:10153000D4C78DBF1842094631830D8B6315C70090
:101540001307E043EDB71307E01BD5B7F8522DF3AF
:1015500095BF5D71A2C4A6C22A841306800228002A
:10156000AE849305100886C6CAC04EDE52DCEFE09A
:101570007FF13545971006E0E78040433723002090
:10158000832703AE9376F41F372E002023A4070091
:10159000984BB72E0020370FFCFF1367F70398CB4B
:1015A000F84F130510F8B7020400137707E0558FC2
:1015B000F8CF9843F576FD16758F98C39843B70614
:1015C0003300930380251377F7E798C398431149B5
:1015D0007D1F1377F7E71367071098C303274EAFF4
:1015E0008549930F80021C47D58F1CC783A7CEAEB9
:1015F0001307900D3400B8CB014793553700A695DB
:1016000083C7050013767700B3D7C740858BE1C346
:10161000832703AE83284EAF239C0704239007063D
:1016200003A8C8021378D8FF23A6080383A80700DD
:101630001378F70793F808F833E8080123A00701A7
:1016400003A847023368580023A2070383A8CEAE3D
:10165000014823A2780603DA07066307480303A8B4
:101660000703038A06001358F800620813588841DC
:1016700063580A0103A807031358F80023800601E2
:1016800003D807061378F80F03AA480663060A0072
:1016900003DA8705E37F49FB03A847023378E801B3
:1016A00023A2070383870600635CF40003C80500D8
:1016B0003396C9001346F6FF337606012380C50032
:1016C0003E8663D3A7002A86131586016185050728
:1016D0001377F70F8506E312F7F3B64026449644D6
:1016E0000649F259625A61618280372600208327B9
:1016F000C6AE1306C6AED8479316170163D20602CC
:1017000098479316170163DD06007D57B8D7372732
:101710000020130707BC544F850654CF116798C7A4
:1017200098470D83058B15CB37270020130787EAD1
:101730008346270093E616002301D700930600F89E
:101740002302D700214798C737270020832607AEFA
:10175000D856719B13671700D8D69847058B15C7C5
:1017600037270020130787EA8346170093E6160001
:10177000A300D700054798C737270020832607AE68
:10178000D856719B13671700D8D698470983058BE5
:1017900009E798470583058B39CB94473727002005
:1017A000372500208982858AF5CE832605AE9442AE
:1017B000B1828D8AEDE6AC4B930687EA944E93F5A1
:1017C000050283C61600D5C5E1EA93067006D4CF9C
:1017D000834687EA93E616002304D7EA114798C7A1
:1017E000032705AE5C57F19B93E717005CD71842BF
:1017F0001C479396370163D40602B72700209386CF
:1018000007D803C68607938707D8418A55C683C77A
:10181000860793E70702238CF60685671CC71C47DB
:101820009396270163D10602B7270020938787EAA2
:1018300083C64700E206E18663D50600854623821B
:10184000D70089671CC71C479396070163D206021D
:10185000B7270020938707D883C69707858AADCE20
:1018600083C6970793E62600A38CD706A1671CC7FB
:101870008280A1DE85456395B6009306B00681BFE0
:1018800089456395B6009306F00691B78D4563953B
:10189000B6009306300725BF930650070DBF930689
:1018A000600735B7130787EA8346370093E61600CB
:1018B000A301D700094725B783C687070946BD8A14
:1018C0006388C60083C687070D46BD8AE397C6F4C2
:1018D0009146238CD70691B783C69707918AD9D6AC
:1018E00083C6970793E6860041B7397106DE16DC9A
:1018F0001ADA1ED82AD62ED432D236D03ACE3ECCE0
:1019000042CA46C872C676C47AC27EC0F93BF2505B
:10191000E2525253C2533255A25512568256724762
:10192000E2475248C248324EA24E124F824F2161C6
:101930007300203037270020B7260020138646EC9E
:10194000130747EE8347D7008345B601484AAE9751
:10195000FD8BB355F500A300F600A306F7008589BB
:1019600095E903471701814613080002B3F7E70220
:101970000147B355E50085899378F70F89C96395C9
:10198000D700A30016018280850693F6F60F05079F
:10199000E31107FF8280B7270020938787EA83C778
:1019A000570093F7F70FD1EBB727002083A7479E87
:1019B000411122C44AC006C626C282973729002098
:1019C000930749EE8047130949EE6302A406636852
:1019D0008504018DB7240020938744EC83C7A701B9
:1019E00013545500938444EC6363F404A13783C714
:1019F000A401032789009396570036971D8C232452
:101A0000E900E375F4FE224403C51400B240924499
:101A1000024981454101171306E06700E341B727FA
:101A2000002083A787C033848740229565B7B240E2
:101A3000224492440249410182808280B7270020DB
:101A400083A7479E011122CC26CA52C406CE4AC89B
:101A50004EC68297B7240020938744EE8047014A00
:101A60006301A406938444EE63668506018D3727DF
:101A70000020930747EC83C7A70113545500137A3E
:101A8000F501130947EC636BF402B7290020938931
:101A900049C04D358346A90103A8840083A54900A8
:101AA000139756004297158C3A8663640701636466
:101AB000B7003306B74090C4E37DD4FC1604336A04
:101AC0004401F24062445285D2444249B249224A1A
:101AD00005618280B727002083A787C033848740B1
:101AE000229571B7B727002003A7C7AE85679387F4
:101AF00007777CD3B727002083A747AF83A60709C2
:101B0000139656006358060083A6070913966600CD
:0C1B1000634406007453FDF28280000064
:101B1C00B72700203727002083A7079D0327879C22
:101B2C0001456313F700828083D6670081E683D674
:101B3C00470036959C43F5B7B727002083A547B8D7
:101B4C0037270020938747B8138605222328C79C84
:101B5C0003D74700938785FFB72600204111BA971A
:101B6C00056523A4F69C06C61D05935637006374C1
:101B7C00E500930600203307D600372500202326E6
:101B8C00E59C23A0E522E1162312D60023130600C0
:101B9C001CC3998FE1172312F700231307008D3F05
:101BAC00B240B72700202393A7BC41018280B727FE
:101BBC0000203727002083A7079D8326879C01459B
:101BCC006393F600828003D7670011E703D74700C1
:101BDC006373E5003A859C43E5B7B7270020B72629
:101BEC00002083A7079D03A6869C2A87B305B540D2
:101BFC006314F6003A8529A8938687009C43E36911
:101C0C00D7FEE377F7FE2E85E3E4D5FEE3F2F5FE8F
:101C1C00828023AC05FE1C4191E7010001000CC140
:101C2C008280BA8703A787FF6DFF23ACB7FE828043
:101C3C001DC18346E5FF1307F00F9147639EE60035
:101C4C00411106C697E0FB1FE780404BB24081472D
:101C5C003E854101828095473E85828001E90145A0
:101C6C0082800145B2402244410182809565411138
:101C7C00938505D022C4C98D2A842105C20542054D
:101C8C00C181418106C697E0FB1FE780E03A71D91C
:101C9C00FD5723200500231285002303F5002105A1
:101CAC00D1B7411126C2B724002022C44AC083A751
:101CBC00449D06C6014401499384449D89E7A1656E
:101CCC004D2D05C401A803C7E7FF6317A70215C86C
:101CDC00A165392E9840832784FF6316E4029CC0CB
:101CEC00FD57232C04FE230FF4FE2285B240224420
:101CFC00924402494101828011E03E8983A787FF0B
:101D0C0075BF3E84E5BF232CF9FED9BFB1CDB727F3
:101D1C00002083C717BC411122C406C62A842E8515
:101D2C006375F400894763E8870019370D45B240A5
:101D3C0022444101828083A785FF99E703C7E5FF11
:101D4C009307F00F6305F700E5351545CDB737253B
:101D5C000020238F85FE1305459D653D2285224479
:101D6C00B240A165410169A415458280B7270020C6
:101D7C0023AA079C8280B727002083A7C79E99E3DC
:101D8C003E85828003D727006316B70003C7070080
:101D9C00E308A7FEDC47E5B7C1C1797122D406D6AA
:101DAC0026D24AD04ECE01444147B3D78540858BCD
:101DBC00B9CF1205314722953305E502B72700202C
:101DCC0003A9C79D8544B3948400C204C180938940
:101DDC00C79D2A990327090011C7032549002EC660
:101DEC000297B24531473304E40283A709003E94BD
:101DFC001C4489E72320090023220900B2502254F5
:101E0C00A58D02599254F2492E85456182800504B4
:101E1C00E31DE4F88144DDB72E85828041111397D0
:101E2C00050122C406C626C24AC041872E84635EC1
:101E3C000700853D11C1ED3BA1673D8C2285B24069
:101E4C0022449244024941018280EDD9AA8701477C
:101E5C004146B356E440858A9DCA9207BA97B1466B
:101E6C00B387D702B726002003A9C69D8544B39437
:101E7C00E400C204C1803E99832709000325490070
:101E8C0082972320090023220900258C45BF0507D2
:101E9C00E311C7FC8144D5BFB727002083A747BAFD
:101EAC00411122C406C6372400201304849991C71B
:101EBC0082971C403E9508C031A0B727002083A70D
:101ECC00479EFDF70840B74703009387D73F33057C
:101EDC00F502B7A72600938737ECB2403E9508C0B1
:101EEC0022444101828071CDB727002083A7479EF1
:101EFC00797122D426D24AD04ECE52CC56CA5AC868
:101F0C0006D65EC63A8AB689328BAE8A2A89829701
:101F1C00B727002003A7C79D9384C79D0144B146F2
:101F2C00C147B30BD40233067701104251E6C165A9
:101F3C00938505F0414597E0FB1FE780E00F15E521
:101F4C00B727002083A747BB2D4589C7114581457D
:101F5C0082972D45B250225492540259F249624A4A
:101F6C00D24A424BB24B45618280B7260020938601
:101F7C00C69E984215EF88C2230005009C40054779
:101F8C003317870023260500232465012311E50060
:101F9C0023224501DE9723A0270123A2570123A466
:101FAC0047010145E38809FA2380890065B73E871C
:101FBC005C47F5FF48C7C9B70504E314F4F621459F
:101FCC0051BF09458280B727002083A7879E411106
:101FDC0022C406C637240020130404BC89C7829788
:101FEC005C483E9548C84848B24022444101828032
:101FFC00B727002083C717BC6370F5023727002072
:10200C00931715000325879D3E9583570500DD8D9D
:10201C002310B500014582800D458280B727002032
:10202C0083C717BC6372F50237270020931715007E
:10203C000325879D93C5F5FF3E9583570500FD8DC0
:10204C002310B500014582800D458280130705FFE2
:10205C001377F70FFD4763E5E70AB146B306D502E0
:10206C00B727002003A7C79D89473697184351CB44
:10207C00011122CC26CA0544935445003D893315E1
:10208C00A4001314050141804AC826852E89A28517
:10209C004EC606CECD31AA89814739C9A28526857F
:1020AC00B53FB727002083A7479EB7240020938411
:1020BC0044C0829783D784002A848146B385270342
:1020CC0013060064B3B7270313850532B335B50087
:1020DC00BE95EFA06222B30785003E87D44063E42F
:1020EC00A70063E4D7003387D74023A4E9008147D6
:1020FC00F2406244D2444249B2493E850561828035
:10210C0089473E858280011126CA06CE22CC4AC858
:10211C004EC6BD47894463EEA70231473307E5023B
:10212C00B727002083A7C79D8944BA979C4395C3C2
:10213C0005443314A400420441802E890145A28534
:10214C001D39AA89814411C5A2850145C13D23A42D
:10215C002901F240624426854249D244B2490561C4
:10216C008280B727002083C717BC6364F500014544
:10217C0082800111B727002056C283AA479E06CE43
:10218C0022CC26CA4AC84EC652C463880A0A3729CA
:10219C000020130949C02E8A8324490083558900E5
:1021AC00B74736FE938707C8BE94B387C5022A8407
:1021BC00B2898146B3B5C50213850732B337F50032
:1021CC0013060064BE95EFA0221363E8A406829A5E
:1021DC0083558900AA8413060064B38735038146AE
:1021EC00B3B5350313850732B337F500BE95EFA0B1
:1021FC00A210B3079500BE840327490063E4A7002F
:10220C0063E4E700B384E740D2852285AD3601C58F
:10221C0004C5054525A0936504F0C205C18141455F
:10222C0097E0FB1FE78040E11DE1B727002083A763
:10223C0047BB81C7A285114582970145F240624494
:10224C00D2444249B249224A924A056182803727D8
:10225C0000201307C79E1C4385E308C3854723262C
:10226C00050004C52311450123008500A300F500DA
:10227C002322050079BFBA87D84775FFC8C7F9BFB5
:10228C0049CD797122D426D24AD04ECE52CC5EC6DC
:10229C0062C466C26AC006D656CA5AC83689328A21
:1022AC00AE89AA844144314CB72C0020054D930BC8
:1022BC000003B30A8403138BCC9D03270B005697A2
:1022CC001C43B9E79375F400B315BD001355444096
:1022DC00C2055286C1811375F50F613515C9832767
:1022EC000B000145D69784C323A237016304090070
:1022FC0023008900B250225492540259F249624A86
:10230C00D24A424BB24B224C924C024D45618280D8
:10231C000504E31074FB2145F1BF0945828041118E
:10232C0022C426C24AC006C62A842E89B284153D10
:10233C00CA852285893405CDB727002083D5C7C02F
:10234C002A8413060064B38795028146B3B59502BF
:10235C0013850732B337F500BE95EF90F27948C07C
:10236C000145B240224492440249410182802145F8
:10237C00CDBF411122C426C24AC006C62A892E846A
:10238C00DD3AAA8419C123110500A2854A85793149
:10239C00B727002083C707BC639B2701B727002002
:1023AC009387079E03D70700598C2390870001451C
:1023BC0091E01945B2402244924402494101828085
:1023CC009307F00263E8A7044111B14722C4330418
:1023DC00F50226C2B72400209384C49D9C4006C6F7
:1023EC00A297984389470DC39377F5008545B3951C
:1023FC00F500C205C1811181AD3F9C40A29723A07D
:10240C00070023A207008147B240224492443E8534
:10241C004101828089473E858280411106C622C4D3
:10242C00993A11E50145B240224441018280B72717
:10243C00002083A7479E00458297B72700209387EB
:10244C0047C06368A402D843B74636FE938606C8D5
:10245C003305A4403697E377E5FC13070064B335E6
:10246C00E50203D6870081463305E502EF90D2687A
:10247C005DBFD8433A94C1BF4111B727002006C6AF
:10248C0023A4A79E0295B240B727002023ACA7BC7B
:10249C00014541018280994763EAB7009397250073
:1024AC00B7250020938585BEBE9588C18280B7274D
:1024BC00002023A6079E37250020B72700204111B6
:1024CC0023A4079E7146B72700208145130585BEBE
:1024DC0006C623A2079E22C426C297E0FB1FE780F4
:1024EC00E0D237250020130680028145130405BC79
:1024FC00130505BC97E0FB1FE78040D1EFF0CFE35D
:10250C00B727002083C7B7B98545B724002013D55A
:10251C0027008D8B3E958D473305F50299479384A3
:10252C00C49D39051375F50F2301A4003305F5027D
:10253C001305052497E0FB1FE78000B088C041C15C
:10254C0003462400994781453306F60213060624F8
:10255C0097E0FB1FE78080CB9C4003472400B72407
:10256C000020938707249384049F0A079CC0BA9782
:10257C0037270020232CF79CEFF04FFF452983478A
:10258C00140094403726040013972700369713063F
:10259C0046DA10C3138717001377F70F0A0737268D
:1025AC0004003697130686E210C313873700890799
:1025BC0093F7F70F8A07A300E400B69790C3B240D5
:1025CC00224492444101828037270020130707BC24
:1025DC00834717008346270063F0D702B7260020F5
:1025EC0083A6069F13861700A300C7001397270026
:1025FC00369708C33E8582809307F00FE5BF1C41D8
:10260C006384071241777D8FB70600208947631ECC
:10261C00D71003574500630A0710411126C219460B
:10262C00AA849305F00F690506C622C44AC097E038
:10263C00FB1FE780A0C705478D476300E50E9C4450
:10264C0091C7D858994771CB985C61CB372400203F
:10265C001306C0038145130544B897E0FB1FE780C0
:10266C00E0BA1306C003A685130544B897E0FB1F18
:10267C00E78040B6130944B80357C900930744B820
:10268C0009E7130700102396E70003C7E70001E7EB
:10269C0005472387E70003D7070101E76D47239818
:1026AC00E70003C7F70001E71547A387E70003C757
:1026BC00270101E705472389E70003C7370109E72D
:1026CC0003C7F700A389E70003C7470101E73547B4
:1026DC00238AE70003C7970109E713078002A38C3D
:1026EC00E70003C7570109E71307D002A38AE700E5
:1026FC0003C7840109E71307C003238CE7009C5729
:10270C0091C78297B72700202394A7BCB727002036
:10271C007D57A389E7B6613B8147B240224492447E
:10272C0002493E854101828089473E8582800111A4
:10273C004AC837290020130949C08327090006CE4F
:10274C0022CC26CA52C456C24EC68297130A0064C3
:10275C00B3354503835A89008146568633054503B4
:10276C00EF909239B7270020138707BC004FAA843B
:10277C00014563069402938907BC33858440636EDC
:10278C0094000325490056868146B335AA023305C9
:10279C00AA02EF907236018D269523AC9900F24077
:1027AC006244D2444249B249224A924A056182802B
:1027BC00011122CC2E84B7C506000A8541469385AB
:1027CC00457506CEEF90D26C180806043A94B727DC
:1027DC000020035504FF83D7E7C0F2406244AA9758
:1027EC0037450F00130505243355F502056182802A
:1027FC00B727002083D7E7C051471D45637CF702FC
:10280C00794719456378F70213072003154563735D
:10281C00F7021307B0041145637EF7001307400657
:10282C000D456379F7001307600909456374F700D8
:10283C0013B5B70F8280011122CC06CE2A842EC686
:10284C00EFF08FE5B245F240818D33A5A5022295BC
:10285C0062441375F50F05618280011122CC06CEFE
:10286C002A842EC6EFF04FE3B245F240818D33A59A
:10287C00A5022295624442054181056182800111C5
:10288C0022CC06CE2A842EC6EFF00FE1B245F240E0
:10289C00818D33B5A5022295624405618280B727EC
:1028AC000020138747B818572DC3411122C426C2E4
:1028BC004AC006C6138947B80297B727002013876A
:1028CC0007BC035787002A84938407BC0DCBBA87B7
:1028DC006373A700AA87C207C183BA866373E40037
:1028EC00A286C206C182958F5147635AF70083278F
:1028FC00C90291C38297EF00C21023948400B240A6
:10290C00224492440249410182808280011122CCEE
:10291C0037240020930744B8DC5706CEAA8513044D
:10292C0044B881C72AC68297B245B5CD9C410545AE
:10293C00BDC7DC41ADC783D78500B5C383D7A50020
:10294C00B9CF83C7C500A1EF372500204146130539
:10295C0045C097E0FB1FE780E087B72700209387EF
:10296C0047C09443372700202322D79E0347940166
:10297C000DE303D587009307800237460F0033051C
:10298C00F5021306062481468145EF90F216A30C3E
:10299C00A400372504001305A573F93C0145F2404A
:1029AC0062440561828003476401B7270020938746
:1029BC0047C093168701E18663DB060237270020A8
:1029CC00130707BC232E0700370700201307675B8C
:1029DC0098C337873200FD56130727A1D4C398C775
:1029EC0023860700B7C7004023A4D726BDB793762C
:1029FC0017008DC237872003130707D098C73707F6
:102A0C00C0A8D8C3370700201307875E98C3238656
:102A1C000700A1B7E1762394D70011C71307003242
:102A2C002395E700E9BF13072003DDBF011122CC7A
:102A3C0037240020930744B8884706CE26CA4AC8D4
:102A4C0001E90545F2406244D24442490561828065
:102A5C00130444B85C58F5D7185C65D770008545ED
:102A6C0082971844B247E30EF7FC0355C400930554
:102A7C00E004B724002097D0FB1FE780E05B1387AE
:102A8C0004BC08D3938404BC4DDD0356C4009305E9
:102A9C00F00F014997D0FB1FE78040778347E40094
:102AAC009050634DF900328597D0FB1FE78000658D
:102ABC00014523A0040223A2040269B78355C40074
:102ACC000844185CB3872503898105093E9508C223
:102ADC000297E9B701114EC6B7290020938749B870
:102AEC009C4726CA4AC852C406CE22CC56C25AC0EB
:102AFC002A8AAE843289638C071E938949B803A74E
:102B0C004903630207127D476361A7123724002033
:102B1C00130704BC832A0702130404BC639A0A0833
:102B2C0003D5C9009565938515E097D0FB1FE78009
:102B3C00A05008D02A8665C983D5C90083A749034C
:102B4C0003A589008981829783A78900832A0402BF
:102B5C005CD089476316FA08C1476396F40C83D599
:102B6C00C9009147938505FCB3C5F5028A05D69536
:102B7C0003C705009307A0056313F70A83C7150065
:102B8C00639F47094A852686910597D0FB1FE780EE
:102B9C0060641C505685639357130145F2406244A0
:102BAC00D2444249B249224A924A024B0561828080
:102BBC005850E380E7FA03D5C9009565938525E065
:102BCC0097D0FB1FE7804047AA8A31CD83D5C90037
:102BDC002A8683A7490303A589008981829795BF1B
:102BEC008D47631BFA00C147639FF40283D5C9006C
:102BFC00938545FDF199A5BF91476318FA0063943D
:102C0C00440383D5C900A115F5B7C147631DFA006C
:102C1C00A14763EA970083D5C900C115E1BF1C50D9
:102C2C0056856391570D294595BF1307F006636CC4
:102C3C00A708930A05FE1947B3CAEA0203D7C900CD
:102C4C00372B0020B38AEA02BE9A93070BBCDC53E5
:102C5C00130B0BBC6395570103240B021DE003D52A
:102C6C00C9009305E00497D0FB1FE780E03C2A8461
:102C7C005DD983D5C90083A749032A8689815685E6
:102C8C00829791451307A005898193972500A297F8
:102C9C0083C607006393E60483C61700639C460350
:102CAC0085058A052686A2954A8597D0FB1FE78065
:102CBC00605283270B02E38287EE228597D0FB1F9D
:102CCC00E780C043D9BD1307E007E36EA7F4930A6E
:102CDC0005F9ADB783D5270045BF83270B02E384E5
:102CEC0087F4228597D0FB1FE78040412DBFB72783
:102CFC00002083A507BE85D991479306A00589833B
:102D0C00139727002E9703460700E31ED6F00346C1
:102D1C001700631C460185078A072686BE954A85DF
:102D2C0097D0FB1FE780004B8DBD83572700C1BF99
:102D3C00B7270020938747B8984729C3985F1DCFC2
:102D4C008546631DD502411122C43724002013048B
:102D5C0004BC105006C619CE83D5C70048508981D3
:102D6C000297085097D0FB1FE780403923200402BC
:102D7C0023220402B240224441018280828001114C
:102D8C0022CC37240020930744B856C283AA87006C
:102D9C0026CA4AC84EC606CE52C42A89AE84B28907
:102DAC00130444B8638B0A1C1C5C99EB2945F24054
:102DBC006244D2444249B249224A924A0561828015
:102DCC005C58EDD7FD4763E7A70C372A0020930723
:102DDC000ABC9C53130A0ABCB9C7084483274A028D
:102DEC00639FA70489476317F906C147E390F4FC76
:102DFC000355C4009147130505FC3345F5029317A1
:102E0C00250003250A022686CE853E959307A0054C
:102E1C002300F500A3002501110597D0FB1FE780C7
:102E2C00603B014569B70355C4009305E00497D096
:102E3C00FB1FE78060202320AA0245F185BF835544
:102E4C00C4005C5803260A02898182971C44232201
:102E5C00FA0249BF8D47631CF900C147E398F4F4AB
:102E6C000355C400130545FD9377C5FF59BF914722
:102E7C006318F900E39C24F30355C4002115EDB746
:102E8C00C147E315F9F2A147E3E297F20355C400F9
:102E9C004115D9BF9307F00663E9A706930705FE12
:102EAC001947B3C7E7020357C400372A0020B3877A
:102EBC00E702BE9A93070ABC9C53130A0ABCA9CF1B
:102ECC0083274A026396570703250A029146130883
:102EDC00A005FD5593D72600C207C1831397270081
:102EEC002A97034607006314060783481700035606
:102EFC002700639C2805B306D64063C69604850755
:102F0C008A072686CE853E9509BF9307E007E3EF37
:102F1C00A7E8930705F941BF0355C4009305E004E6
:102F2C0097D0FB1FE78040112320AA0251F9BDBDA9
:102F3C008355C4005C5803260A0289815685829702
:102F4C0023225A0351B7A300B700B28661B70356C8
:102F5C00C400B38596009105130606FCE3F8C5E49E
:102F6C00138634001376C60F1106B29623000701A0
:102F7C00A30027012311D70059B7372A0020930744
:102F8C000ABC9C53130A0ABCA1C303250A0291462E
:102F9C001308A005FD5593D72600C207C1831397CC
:102FAC0027002A970346070063120605834817007B
:102FBC000356270063982801B306D640E3D196F454
:102FCC00A300B700B286C1BF0345E4008357C40019
:102FDC009305E0043305F5024205418197D0FB1FB0
:102FEC00E78080052320AA024DF1C9B30356C40023
:102FFC008345E400B385C502338696001106E3E7EA
:10300C00C5DAB9BF0145828083C705002300F500EE
:10301C0083D72500A300F50083D72500A1832301C6
:10302C00F50083C74500A301F50011458280B72741
:10303C00002023AC079EB727002023AA079E82807E
:10304C0029C1411126C206C622C4AA8401458DC5D8
:10305C002E84B7C50600228541469385457697D0C8
:10306C00FB1FE780201783C7040005452306F400E7
:10307C0083C71400A306F400B240224492444101D9
:10308C00828001458280011122CC26CA06CE0947D6
:10309C00AA8432846381E50441468147639BC50061
:1030AC00638FE6006397B6000DA841478147638E96
:1030BC00E600F2406244D2443E85056182808A85F6
:1030CC002285BD3F41468A8519A88A85953F414690
:1030DC008A85228531A0E39AB6FC2E86A2852685A8
:1030EC0097D0FB1FE780E017AA87E1B7B72700202E
:1030FC0023AAA79E8280B727002023ACA79E82809C
:10310C00011122CC0354650006CE26CA4AC84EC60D
:10311C0041C083298500AE842A8803C909008147F0
:10312C0013178901618763550702B147054563FA97
:10313C0087045114420403552800418033878900C9
:10314C00A2864E868545EFC0001CB337A0008507CC
:10315C007D1413556900420405891379F9034180E4
:10316C002380F400A380A4002381240123928400F3
:10317C00014719C01387190098C409476383E700F6
:10318C000145F2406244D2444249B2490561828011
:10319C000545C5BFC167F917630AF502D94763F73F
:1031AC00B702011122CC2EC606CE2A84EF904056CF
:1031BC00B2456368B50022856244F24005616FA098
:1031CC00707CF24062440545056182800545828031
:1031DC00C167F9176314F5006F908053411106C64F
:1031EC00EFA0106911E15D45B24041018280914729
:1031FC006394F502834705002300F60083472500FE
:10320C0003471500A207D98F2311F6008347350019
:10321C0001452302F60082801145828041118145CF
:10322C0022C426C206C6AA8405252A8409E9B72722
:10323C00002083A7479F81C7F94526858297228561
:10324C00B240224492444101828039714ED656D20A
:10325C005AD006DE22DC26DA4AD852D4AA8A2E8B21
:10326C00B28941EF36C6AD379145EF90205CAA8408
:10327C004D492DC9B246054A238034010544630AE1
:10328C000B00B68513851400029B0505131405016C
:10329C004180E20993D9894163D30902C14556851E
:1032AC00EFA0506B654905E933868400A28526851D
:1032BC00EFB0704A2A8905E13104420441809147FC
:1032CC002C085685231CF10026CE231D8100EFA06F
:1032DC0060712A8901C963070A00268597D0FB1FF4
:1032EC00E780C0E1F25062544A85D2544259B25937
:1032FC00225A925A025B21618280BA84014AADBF84
:10330C00011122CC26CA4AC84EC606CE2A8932845E
:10331C00B689253FAA840DE1B727002083A7879F94
:10332C0081CF05476317E40003C409000504137437
:10333C00F40FA2854A858297F24062442685424961
:10334C00D244B24905618280AE86B735040001478C
:10335C000546938545016DB783D705002300F5001D
:10336C0083D70500A183A300F5000945828083D78C
:10337C0005002300F50083D70500A183A300F50009
:10338C0083D725002301F50083D72500A183A30152
:10339C00F5001145828083D705002300F50083D703
:1033AC000500A183A300F50083D725002301F500B8
:1033BC0083D72500A183A301F50083C75500230201
:1033CC00F50083C76500A302F50003D58500190538
:1033DC0042054181828083D705002300F50083D705
:1033EC000500A183A300F5000945828083D7050061
:1033FC002300F50083D70500A183A300F50083D734
:10340C0025002301F50083D72500A183A301F50036
:10341C001145828003D54500060542054181828015
:10342C0083D705002300F50083D70500A183A300F3
:10343C00F50003D52500090542054181828083D71B
:10344C0005002300F50083D70500A183A300F50038
:10345C0083D725002301F50083D72500A183A30181
:10346C00F50003D54500110542054181828083C7D3
:10347C0005002300F5000545828083D70500411126
:10348C0022C406C62300F50083D705002E8411053F
:10349C00A183A30EF5FE83D725009505230FF5FE1A
:1034AC0083D7D5FFA183A30FF5FE03C6F5FF97D0F5
:1034BC00FB1FE78020D203454400B2402244110593
:1034CC00410182808947639CF500834715000347BF
:1034DC0005000145A207D98F2310F6008280114503
:1034EC00828003D70500D94763FEE702011122CC85
:1034FC0006CE2EC62A84EF90A021B24683D70600B2
:10350C00636DF50022856244F240B7350400014733
:10351C0009469385453605610DBBF2406244094569
:10352C00056182800945828091479DC583460500CF
:10353C00FD15C2058547C1816392F60213D725009C
:10354C008D89914791E9914701CB05052301D6005F
:10355C002310E60048C281473E8582800947914787
:10356C00E39CE6FEC94733D7F502B3F5F502D1BFAC
:10357C00AE86B7350400014711469385A537F1B1E6
:10358C0093F7350091EB8981914789C52310B600DB
:10359C0048C281473E8582809147EDBF03C74500F5
:1035AC008947631AF702011122CC2A84C84506CE3A
:1035BC00AE86014719C52EC69D45EFE00FE2B24617
:1035CC002A8722856244F240B73504001946938558
:1035DC00253A05619DB90945828099E111458280A2
:1035EC008347050005472311F600E379F7FEFD1527
:1035FC0093F5F50F33D7F502B387E702E390F5FEA9
:10360C00050548C22310E6000145828083C74500AA
:10361C000947AE866385E70041476399E700B735F4
:10362C000400014721469385654805B10945828010
:10363C002310B60091E1014548C201458280AE8657
:10364C00B7350400014729469385253EFDBE23105E
:10365C00B60091E1014548C201458280AE86B7357E
:10366C000400014731469385853FC5B62310B6004B
:10367C0091E1014548C20145828003D74500854749
:10368C0063FDE702011122CC2A84884106CE0DC1CC
:10369C002EC68545EFE06FD42A8722856244B24658
:1036AC00F240B7350400394693850542056171BE79
:1036BC00F240624409450561828009458280914748
:1036CC009DC5034705008D46914763F2E602FD1543
:1036DC00C205C181B3C6E5023308D702639905015F
:1036EC0005052310D6002311E60048C281473E850C
:1036FC00828083C745000947AE866385E700414752
:10370C006399E700B7350400014741469385654846
:10371C002DBE09458280B335B000139525008280FB
:10372C00011122CC26CA06CE03C785008547AA8480
:10373C002E8449466310F702613C835724004915D7
:10374C001306200963C8A700F2406244D24409451D
:10375C00056182800347940085476314F700136664
:10376C000604484011C58D4532C6EFE00FC73246FE
:10377C00A2866244F2402A872685D244B7350400DB
:10378C009385C5420561D1B48D4763FFB70283476A
:10379C00150003470500F115A207D98F2310F60079
:1037AC008347350003472500C205A207C181D98F85
:1037BC002311F6002312B60089C5110508C6014570
:1037CC00828023240600E5BF11458280011122CCA2
:1037DC002A84884506CEAE8611C52EC69545EFE0E7
:1037EC00CFBFB2462A8722856244F240B735040027
:1037FC0059469385A544056189BCB335B000139532
:10380C0025008280AE86B73504000147614693855A
:10381C00A54725BC8547114563F4D702834716009D
:10382C0083450600A207CD8F2310F7009387E6FF90
:10383C002311F70089476386F600090650C301453A
:10384C00828023220700E5BF0147814679468145E6
:10385C00EDBA83D705002300F50083D70500A183BB
:10386C00A300F5000945828083C725000547230086
:10387C00F50003D505006397E7000A050505420529
:10388C0041818280C9473305F502CDBF03D50500C0
:10389C000A0542054181828083D725002300F5006B
:1038AC0003D5050083D725003305F5020505420530
:1038BC004181828003D50500828003D5050082807A
:1038CC0003D50500828083D725002300F50003D59E
:1038DC00050083D725003305F50205054205418116
:1038EC00828083D705002300F50083D70500A183D0
:1038FC00A300F50083D725002301F50083D725000D
:10390C00A183A301F50003D54500110542054181B2
:10391C00828083D705002300F50083D70500A1839F
:10392C00A300F50003D525000905420541818280DD
:10393C0089471145639BF6008347160083460600B2
:10394C000145A207D58F2310F700828003D705000D
:10395C00D947AE8663F9E700B745040001470D4629
:10396C009385E58571BA0945828011456393A6025A
:10397C0083471600834606000145A207D58F231006
:10398C00F7008347360083462600A207D58F231104
:10399C00F700828083C725000547FD1793F7F70FC3
:1039AC006361F70483D705008DCF011122CC2A84E3
:1039BC00C84106CE15C12EC68945EFE00FA22A8755
:1039CC0022856244B246F240B74504001546938501
:1039DC00458705616FF0DF92F2406244094505614D
:1039EC008280094582809547114563F9D7064111BC
:1039FC0022C426C24AC006C683471600BA840347AF
:103A0C000600A2073284D98F2390F4008347360036
:103A1C000347260093054400A207D98F2391F40095
:103A2C0089472382F400094613855400368997C0D0
:103A3C00FB1FE780207A9307A9FF2394F400994792
:103A4C00631BF90023A60400B240224492440249AD
:103A5C000145410182801904C0C4FDB7828083D71F
:103A6C0005008DCF011122CC2A84C84106CE15C188
:103A7C002EC68545EFE06F962A8722856244B246B2
:103A8C00F240B74504001D469385858905616FF0AA
:103A9C003F87F24062440945056182800945828076
:103AAC0099476395F6048947411106C62302F7002E
:103ABC008347160083460600B285A207D58F2310D4
:103ACC00F700834736008346260003464700A207CB
:103ADC00D58F130557002311F700910597C0FB1FD5
:103AEC00E780406FB240014541018280D1471145CA
:103AFC006394F600C1474DBF828083D705008DCFFC
:103B0C00011122CC2A84C84106CE15C12EC6894586
:103B1C00EFE0AF8C2A8722856244B246F240B7456B
:103B2C00040025469385458A05616FF06FFDF240D0
:103B3C0062440945056182800945828089471145A7
:103B4C00639BF60083471600834606000145A207D7
:103B5C00D58F2310F7008280011122CC2A84C84112
:103B6C0006CEAE86014719C52EC68545EFE0EF8619
:103B7C00B2462A8722856244F240B74504002D469E
:103B8C009385058C05616FF0AFF711456393A60221
:103B9C0083471600834606000145A207D58F2310E4
:103BAC00F7008347360083462600A207D58F2311E2
:103BBC00F7008280011122CC2A84C84106CEAE8641
:103BCC0011C52EC68545EFE04F81B2462A87228566
:103BDC006244F240B745040035469385658C056117
:103BEC006FF00FF293F71600114589EB8947638745
:103BFC00F60085822312D70010C301458280011183
:103C0C0022CC2A84C84106CE15C12EC68545EFD0DC
:103C1C00DFFC2A8722856244B246F240B745040095
:103C2C003D469385C58C05616FF08FEDF240624483
:103C3C0009450561828083D705008DCF011122CC07
:103C4C002A84C84106CE15C12EC68945EFD0FFF88F
:103C5C002A8722856244B246F240B74504004546A5
:103C6C009385258D05616FF0AFE9F24062440945FB
:103C7C000561828009458280854763FCD702230455
:103C8C00A700A304B7008347160083450600A207CC
:103C9C00CD8F2310F7009387E6FF2311F700894798
:103CAC006386F600090650C3014582802322070073
:103CBC00E5BF11458280014781464D4681456FF035
:103CCC002FE48D47114563FBD702834716008345CC
:103CDC000600A207CD8F2310F700834736008345DB
:103CEC002600A207CD8F2311F7009387C6FF23125E
:103CFC00F7006386A600110610C7014582802324B5
:103D0C000700E5BF011122CC2A84884506CEAE8679
:103D1C0011C52EC69545EFD05FECB2462A87228599
:103D2C006244F240B74504005D469385E58E05611B
:103D3C006FF00FDD854711456397F600834706004A
:103D4C0001452300F7008280014781466546814585
:103D5C006FF00FDB011122CC2A84C84106CEAE864F
:103D6C00014719C52EC68D45EFD03FE7B2462A87CD
:103D7C0022856244F240B74504006D469385E59177
:103D8C0005616FF08FCC011122CC2A84C84106CE7C
:103D9C00AE86014719C52EC68D45EFD01FE4B2463D
:103DAC002A8722856244F240B74504007546938504
:103DBC00E59105616FF06FC9011106CE2EC6EFA01B
:103DCC00402701C9B245F2400355250005616FE05B
:103DDC00C07DF240494505618280B7270020A3824F
:103DEC0007A2B7270020238207A2B727002023A60B
:103DFC0007A0B727002023A807A0B727002023AAD5
:103E0C0007A0B727002023AC07A0B727002023A4C6
:103E1C0007A0B727002023A207A0B727002093876D
:103E2C0047C1370684033707B40090D337C6070061
:103E3C0098C3130606B83747A000D8C3D0D33707AA
:103E4C00100041669306070AB70550009308060157
:103E5C0094C723A4170393860501930816F8D4C7B7
:103E6C0023A61703B706D007B7087F00130807056A
:103E7C0013850601410723A81703B0C39308160046
:103E8C009386060513861500D8CBF8C323A8070123
:103E9C0088CF23AE070023AA170323AC070223AE57
:103EAC00070223A40704F0C7B4CB23AA0704ACCFA2
:103EBC0023AE0705B8D33707A000F8D71307000ABD
:103ECC00B8DB1307C01CF8DB37071400B8DF054755
:103EDC00F8DF130710F8E8D323A4070623A007087C
:103EEC0023A2E7088280011126CAAA84214522CC8C
:103EFC0006CE2E8432C636C43AC2EFD03FD61DC988
:103F0C00A24612473246930700FD2300F50099475D
:103F1C00A30095002301F5002303D500A303E500BE
:103F2C002312C500AA8522856244F240D244056161
:103F3C006FD0DFDDF2406244D24405618280B72746
:103F4C00002023A6A7A08280B727002023A8A7A023
:103F5C008280B727002023AAA7A08280B727002041
:103F6C0023ACA7A08280011122CC4AC806CE26CA57
:103F7C002A890144B30489006368B400F2406244A6
:103F8C00D2444249056182802EC6EFD0FFF09317D0
:103F9C000501C183A183B2452380F400930714006B
:103FAC0093F7F70F850463F9B700CA9709042380C8
:103FBC00A7001374F40F7DBF3E847DBF411122C452
:103FCC00372400201304C4C903556400C16706C616
:103FDC00FD17630FF500B727002003C647D7B72599
:103FEC0000209385C5A1EF90D062FD572313F400F8
:103FFC00B24022444101828009C925151375F50F81
:10400C001335850E1345150082800145828023905F
:10401C000500C9C6797122D426D24ECE52CC5AC8CC
:10402C0006D64AD056CA5EC63684328AAE892A8BE8
:10403C00814463F34407B307940083C707001389D3
:10404C0014004209939A070193DA0A0113590901E2
:10405C0063840A04CA976341FA04B307240183CB2F
:10406C0007005E85513F0DC99387FAFF2390F90035
:10407C0063906B03130519002295B250225492548D
:10408C000259F249624AD24A424BB24B4561828094
:10409C00D694C204C18071BF0145C5B70145828069
:1040AC00011122CC3724002026CA4AC84EC69307D9
:1040BC00C4C906CE2E89D0CB8CCBC8C7AA844146A6
:1040CC009305F00F4A8597C0FB1FE780201E85499A
:1040DC001304C4C9631935030848C1456935414601
:1040EC009305F00F268597C0FB1FE780201C054920
:1040FC006315250348446244F240D2444249B24914
:10410C00C14505618DB5414681454A8597C0FB1F68
:10411C00E780C019E31535FDC1B7414681452685B9
:10412C0097C0FB1FE7808018E30625FDF240624430
:10413C00D2444249B24905618280011122CC372414
:10414C00002026CA4EC6AE84AA89130600021305A7
:10415C00C4C9814506CE4AC897C0FB1FE780000B37
:10416C00B72700201309C4C9238C97D6A3013901A2
:10417C00EFE0E0451304C4C9854719C1814749459F
:10418C002300F400F2406244D2444249B249056132
:10419C008280814781CD19C98547631BF50083C790
:1041AC00550093E707FCA382F50085473E85828086
:1041BC0089476317F50083C7550093F7F703E5B7F5
:1041CC000D478547E314E5FE03C755001377F70346
:1041DC0013670704A382E500D1BF81478DC105C1D8
:1041EC0003C755009306000C85471377070C63082B
:1041FC00D700930600048D476303D70089473E859B
:10420C008280411122C4005D06C626C21DC8AA8444
:10421C00085009C597C0FB1FE78040EE485009C500
:10422C0097C0FB1FE78080ED085409C597C0FB1FA2
:10423C00E780C0EC228597C0FB1FE78020EC23AC05
:10424C000402B2402244924441018280B7270020EC
:10425C009387C7C919E903C727001385870101CBC9
:10426C00372500201305C59F828013858701828026
:10427C00B727002003C5E7C98280B727002003A514
:10428C0087CA8280B727002003A5C7CA8280B727B8
:10429C00002083A707CB88438280B7270020938711
:1042AC00C7C9D44B9842050798C203C5370093077A
:1042BC00F00F6305F50091656FD09FD382800111DB
:1042CC0022CC06CE2E8432C6EF9050679147B24571
:1042DC006310F502B727002083A787A195C303A31A
:1042EC000700630F030022856244F24005610283DC
:1042FC00B727002083A707A181C703A34700D5B721
:10430C00F2406244054505618280011122CC2A8469
:10431C000355450006CE26CA4AC84EC6EF9030401B
:10432C003DC92A89834405008349C500D93D4A8586
:10433C00EFA0E01F03554400EF90905B372900205D
:10434C00130949A283470900B9CB639A9704B7278D
:10435C00002083C557A22685853419E12300090066
:10436C0003554400EF90905D9147631FF500B7270C
:10437C0000209387C7C98356440003D76700639511
:10438C00E6007D572393E700F2406244D244424951
:10439C00B2490561828081499304F00F45B79307B8
:1043AC00F00FE38FF4FA8346640003564400034590
:1043BC0024004E87A685053E65B779715EC6AA8B2B
:1043CC002E8552CC56CA5AC806D622D426D24AD0EA
:1043DC004ECEAE8A328B368AEF9070347DC1045D3E
:1043EC002A89E5C09C50614599C3130540039C5430
:1043FC0081C751054205418163050A0071054205DB
:10440C004181DC5081C75D0542054181EFD01F859C
:10441C002A8445C96146814597C0FB1FE78000DFB0
:10442C00B727002083C947C4639409008349090056
:10443C00930700FD2300F400A947A3007401230196
:10444C00F400230364018C502312540113058401DE
:10445C0091C908C47146930A440397C0FB1FE780B7
:10446C0060D756858C5491C948C45146930A45016E
:10447C0097C0FB1FE78000D65685630C0A0008C85E
:10448C007146D285930AC50197C0FB1FE78080D483
:10449C005685CC5099C548C85D4697C0FB1FE78030
:1044AC0060D3A2854E85EFD07F862254B2509254B1
:1044BC00F249624AD24A424BB24B4A850259456193
:1044CC0089B3B250225492540259F249624AD24AE8
:1044DC00424BB24B4561828001114EC6AA892E8592
:1044EC004AC806CE22CC26CA2E89EF90502321C969
:1044FC00B727002083C447C499E0834405001945BD
:10450C00EFD0CFF52A8405CD8145194697C0FB1F06
:10451C00E780C0CF930700FD2300F400B947A30048
:10452C0034012301F40023122401A2856244F240D9
:10453C004249B2492685D24405616FD02FFDF24025
:10454C006244D2444249B2490561828039715ECEDF
:10455C00AA8B2E8526DA4ED652D456D25AD006DEE7
:10456C0022DC4AD8AE84328BB68A3A8ABE8942C6DD
:10457C00EF90F01A21CD2A894145EFD02FEE2A84F5
:10458C0031C54146814597C0FB1FE78020C8B7273E
:10459C00002003C547C419E103450900930700FD3A
:1045AC002300F400BD472301F400B247A3007401BB
:1045BC002312940023046401A30454012305440131
:1045CC00A30534015CC4A285EFD04FF4F2506254C1
:1045DC00D2544259B259225A925A025BF24B21617F
:1045EC008280797126D2AA8439454AD04ECE06D61D
:1045FC0022D42EC6B2893689EFD04FE621C1B245FE
:10460C009307000D2310F500B1472A842312B5003F
:10461C002301F500CE851905194697C0FB1FE780CD
:10462C0060BB23062401A2852254B2500259F249E0
:10463C0013F5F40F925445616FD04FEDB2502254E4
:10464C0092540259F24945618280411126C2B72425
:10465C0000209384C4C903C7340006C622C44AC0D0
:10466C009307F00F630AF7042A893945EFD00FDF5F
:10467C002A8439C1930700FD2300F500A30025010E
:10468C0023010500938584010D05194697C0FB1F76
:10469C00E78040B483D78400A28503C5340023157A
:1046AC00F40083C714002306F4002244B240924461
:1046BC00024941016FD08FE5B24022449244024935
:1046CC004101828001115AC02A8B314526CA4EC63F
:1046DC0052C456C206CE22CC4AC8AE84B28A368A9E
:1046EC00BA89EFD0AFD73DCD2A842685EF90300321
:1046FC0011C50347C500A1476314F704B727002071
:10470C0003C9F7C9930700FD2300F4009D47A300DC
:10471C0064012301F4002312940023135401231485
:10472C00440123153401A2856244F240D244B249BB
:10473C00224A924A024B4A85424905616FD00FDDED
:10474C00B727002003C997D7E31E0BFAB727002021
:10475C0083A787B59C47DDD7CE865286D68526851E
:10476C0082974DB7F2406244D2444249B249224A40
:10477C00924A024B05618280011122CC2A84214588
:10478C0006CE2EC6EFD08FCD21C1B245930700FDCA
:10479C002300F500C5472301F50083C73500A301AD
:1047AC00F50083D745002312F50083C7650023036A
:1047BC00F50083C77500AA85A303F5002285624422
:1047CC00F24005616FD08FD4F24062440561828063
:1047DC00397162CC2A8C594526DA4AD84ED652D435
:1047EC0056D25AD05ECE06DE22DCAE8432C636C439
:1047FC00BA8B3E8BC28A468A835901040349410411
:10480C00EFD0CFC525C93246930700FDA246230041
:10481C00F5009547A301C500A30085012301F50010
:10482C002A8419461105A9C2B68597C0FB1FE780DB
:10483C00609A23066401230A2401231574012317AB
:10484C0054012318440123193401A2856254F250F7
:10485C004259B259225A925A025BF24B624C26854B
:10486C00D25421616FD08FCA814597C0FB1FE7805E
:10487C00E099C1B7F2506254D2544259B259225AFB
:10488C00925A025BF24B624C21618280411122C42C
:10489C00372400201304C4C98347240006C626C24B
:1048AC008DCBB7240020AA8519461385C49F97C0C9
:1048BC00FB1FE7802092034524009385C49FEFF0F3
:1048CC005F8D2244B2401385C49F924441016FD046
:1048DC00D050B240224492440145410182804111A2
:1048EC0026C2B72400209387C4C906C622C44AC076
:1048FC0003C737009307F00F9384C4C96304F7040C
:10490C002A892945EFD08FB52A840DCD930700FD58
:10491C002300F500A147A30025012301F50083C75F
:10492C002400B72500209385C59FA301F5001946E7
:10493C00110597C0FB1FE780E08903C53400A285F1
:10494C00EFD0CFBC03C724008D476311F702B72704
:10495C00002083A747A199CB03A38700630803001A
:10496C002244B2409244024941010283B2402244A3
:10497C009244024941018280797122D406D626D212
:10498C004AD04ECE52CC56CA09445DCD2A89035525
:10499C000500AE895144EF908058AA8455C537273D
:1049AC000020930747D783C747008546BA8AFD176F
:1049BC0093F7F70F494463F9F6080347C500A1477D
:1049CC006314F700639209089C5C4544B5EF91654C
:1049DC00938545711305C00297B0FB1FE780C06536
:1049EC0088DC2A8A4D442DC11306C002814597C02C
:1049FC00FB1FE780A0818357090093064A00368588
:104A0C002311FA0071469305490036C697B0FB1F77
:104A1C00E780407C89472300FA0003C5C400B246F6
:104A2C000356090083C54AD7611513351500EFA04D
:104A3C0070012A8463860900CE852685EF90D05EAE
:104A4C0001C42685EFF0EFFB2285B250225492541C
:104A5C000259F249624AD24A45618280B727002046
:104A6C0083C787D70547FD1793F7F70F637AF708C6
:104A7C00894741CA011122CC26CA4AC84EC652C423
:104A8C0006CEAA89368AB2842E89EF9040492A84B0
:104A9C00D14739C9485509C597B0FB1FE780006657
:104AAC00F145268597B0FB1FE780A07848D4CD4709
:104ABC0005CD8346C40021478147639FE600630D03
:104ACC000A000347A5010356050193062501AA8593
:104ADC004E85EF90105DAA8703474400630F0900D1
:104AEC00136767002302E400F2406244D244424957
:104AFC00B249224A3E850561828013674700DDB7C3
:104B0C00C9473E8582809307200463ECA700931766
:104B1C00150037250020130545C13E9503550500AA
:104B2C00828041657D158280011122CC2A842E85DC
:104B3C0026CA06CEAE84EF90803E1DCDB7470F003F
:104B4C009387F723094563E4870281450A8541462B
:104B5C0097B0FB1FE780806BA685231081000A8528
:104B6C00418023018100A3010100EFA0204DF24000
:104B7C006244D244056182804945D5BFB7270020E5
:104B8C00238BA7D682806FA00066797152CC2A8ABB
:104B9C00328522D426D24AD04ECE56CA5AC85EC6C8
:104BAC0006D662C4AE8BB28A368BBA843E89C28971
:104BBC004684EF90C03615C92A8C63140A02137709
:104BCC004B008347450015CF93E727012302FC00D8
:104BDC008DEC631C0902639A090205E8ED9B230224
:104BEC00FC00832B8C0363910B08B250225492541B
:104BFC000259F249624AD24A424BB24B224C4561AD
:104C0C008280F59B93E70701D1B793E74700230216
:104C1C00FC0001CC1C484146A2852324FC02130550
:104C2C008C0197B0FB1FE780E05A63930B02D5D839
:104C3C000325CC0209C597B0FB1FE780204CF1453A
:104C4C00268597B0FB1FE780C05E2326AC0251BFC0
:104C5C00E30909F80325CC0209C597B0FB1FE780CF
:104C6C00E049F1454A85F1BF9DC483A70B0299EB3E
:104C7C00916593853571714597B0FB1FE780C03BFB
:104C8C0023A0AB0203A50B0219C57146A68597B0EC
:104C9C00FB1FE78020546388090283A74B0299EB22
:104CAC009165938525715D4597B0FB1FE780C038F2
:104CBC0023A2AB0203A54B0219C55D46CE8597B066
:104CCC00FB1FE78020511DC483A78B0299EB9165D4
:104CDC0093851571514597B0FB1FE780E03523A4F0
:104CEC00AB0203A58B0219C55146A28597B0FB1FD9
:104CFC00E780404E2254B2509254F249B24B224CAF
:104D0C00CA865A860259424BD6855285D24A624A85
:104D1C0045616FF08FEA011126CA52C406CE22CC2F
:104D2C004AC84EC62A8AAE84EF90601F25C5AA8950
:104D3C003945EFC0BFF22A8431CDB727002003C913
:104D4C0047C46314090003C909009307000D23101D
:104D5C00F400AD472301F40093856900130534007A
:104D6C00194697B0FB1FE780E04693F71400858047
:104D7C0085882306F400A306940023154401A2851C
:104D8C006244F240D244B249224A4A854249056102
:104D9C006FC0DFF7F2406244D2444249B249224A22
:104DAC000561828001114EC652C456C206CE22CC79
:104DBC0026CA4AC8AA8A2E8AB289EF9040162DCDEF
:104DCC002A891305C002EFC07FE92A8435C5B727AD
:104DDC00002083C447C499E0834409009307000D65
:104DEC002310F400E9472301F4009305690013052F
:104DFC003400194697B0FB1FE780C03DD2852315C0
:104E0C0054011305C400414697B0FB1FE780803C5A
:104E1C00CE851305C401414697B0FB1FE780803B4C
:104E2C00A2856244F2404249B249224A924A2685FE
:104E3C00D24405616FC09FEDF2406244D2444249B6
:104E4C00B249224A924A05618280411122C4372418
:104E5C000020130444A0084006C619C597B0FB1FD8
:104E6C00E780C02923200400B24022444101828003
:104E7C00011106CE22CC26CA4AC82EC6EF90200AB3
:104E8C0039CDB245B727002003C947C40CD5AA8435
:104E9C0063140900034905004145EFC03FDC2A8437
:104EAC001DCD9307000D2310F500A5472301F50038
:104EBC0083C75400938564001105A30FF5FE1946B2
:104ECC0097B0FB1FE78000319C54A285F2405CC474
:104EDC006244D2444A85424905616FC03FE3F240C7
:104EEC006244D2444249056182801D71A2CC86CEB7
:104EFC002A842EC6EF90A00205CD8346C50011472B
:104F0C00AA8749456392E6029C5FB24599C383C563
:104F1C006701B70605002308B100938646221008E6
:104F2C0089452285EF901007F64066442561828002
:104F3C005145DDBFB727002083C787D70547FD172D
:104F4C0093F7F70F637AF704894721CA411122C4FA
:104F5C0026C24AC006C6B2842E89EF80507C2A84B1
:104F6C00D14705C5630809008347450093E727002F
:104F7C002302F5004146A6851305840197B0FB1F5B
:104F8C00E78040259C481CD48147B240224492447F
:104F9C0002493E8541018280C9473E8582807971F4
:104FAC0022D406D62A842EC6EF80707701CDB24566
:104FBC002285230EB1006C08EF909003B25022545E
:104FCC00456182805145DDBF6F90000CC16713872E
:104FDC00E7FF6395E502B727002083A707A191EBB4
:104FEC00494582804945B2402244924402494101DC
:104FFC00828003A30700E30503FE0283411122C450
:10500C0026C24AC006C6FD172A892E84B284639A2A
:10501C00F502B727002083A707A191CF9C4381CF2E
:10502C00829711E9B7270020238227A3B7270020F6
:10503C00A38297A24DBFA6854A85EFE0FFD745F521
:10504C00D5B72E85EF80B06D51DD834705000D453A
:10505C00E39B27F922852244B2400249A68592445B
:10506C0041016FD080549307200463E2A7064111DD
:10507C00C16722C406C626C2FD172A84094563826D
:10508C00F502C547AE846313F4022E85EFD0A05908
:10509C0037250020130545C106042A9423109400DB
:1050AC000145B24022449244410182809307A003FF
:1050BC006316F4002E85EFD00050D9BF9307B003D0
:1050CC00E318F4FC13F5F50FEFD0204FD1B70945D9
:1050DC008280011106CE2AC6EFE03FD0EF205007A8
:1050EC00EF10F025EF60F21DB72700209387C7C99A
:1050FC00130700F02391E70023820700B727002055
:10510C003245138747D7FD562301D700F240238A37
:10511C00A7D6954505616F70C06B597193970501C2
:10512C00CAD086D6A2D4A6D2CECED2CCD6CADAC813
:10513C00DEC6E2C4E6C2EAC06EDEC1872E8963D346
:10514C000756B72A002003C54AD7B7240020372BAF
:10515C000020EFC01FB52A84372A0020372C0020EE
:10516C00372D00209384C4C91DE021653345A90067
:10517C00B650265496540659F649664AD64A464BBA
:10518C00B64B264C964C064DF25D6561828083478A
:10519C0004001307200A639CE70083C934000355FD
:1051AC002400C1652286FD15EFF06F91B9AA138713
:1051BC004AD783492700130710096394E7168347DE
:1051CC0014001547639EE7002285EFF00F942285AB
:1051DC00EFC01FA603C54AD7EFC0BFAC2A8469B77E
:1051EC003947639AE716035544008567A50763158D
:1051FC00F5040C4483CB0500639D0B00850591C918
:10520C00B72700201946138547CB97B0FB1FE780C3
:10521C0060FC03C7040085476315F71063880B0017
:10522C00238004005E85EFF04FC255B78947238079
:10523C00F400EFD0403A61BF896713872700631CE5
:10524C00E504832B8400638E0B0C83C70B0089EF62
:10525C0083C72B0003C71B00A207D98F2394F4002C
:10526C0083C73B00A380F40003C704008947631A7B
:10527C00F70A83C70B0091C72380040003C50B00FA
:10528C005DB783C5140003D584008D472380F400DB
:10529C00EF702057E5B795076318F5001C4403C55C
:1052AC000700EFF0CFE325B7F9771387A7FF2A970D
:1052BC0042074183914663F1E6049387A7FCAA97C2
:1052CC00C207C18371476371F70289671387B700FF
:1052DC006310E5048327CAA0E38B07EE9C43A285E9
:1052EC00E38707EE829715A0370700181307F770AE
:1052FC00B357F700858BB1CB83274BA1E38907EC20
:10530C009C43E38607EC22858297E31205EC11A8F7
:10531C001387C7006310E5021C4483C70700E388AA
:10532C0007EA9307F00FE384F9EAA2854E85EFC0F4
:10533C00FF9D4DB5B907631AF500B727002083A769
:10534C0007A1E38607E8DC4359BF896793871704F5
:10535C00E302F5F8F9B73D47639BE70403554400B6
:10536C0089671387D700E30AE5FC13879701E306E7
:10537C00E5FCCD07E317F5FA03D76400C167FD1709
:10538C00631FF700B727002083A707A1E38107E479
:10539C00DC43E38E07E20965A2854D05A1B7B7276B
:1053AC00002083A787A1E38407E29C43DDB71307A2
:1053BC00E003E398E7F68347240005476396E70E7E
:1053CC008347640037270020930D47A0F1E383A7A0
:1053DC000D00C5CF83CB0700A14903457400930C86
:1053EC008400E685EFE07FDF83474401A303A4003C
:1053FC00835804010358E400035744002A860345EC
:10540C0034003EC283572401E686DE853EC0CE873B
:10541C00EFF00FBC8347340095E7DD478358040158
:10542C000358E40083467400835544003EC28357FE
:10543C00240166873EC0CE8705465E85EF801067E7
:10544C00A301A40083A70D0081C71145EFF0FF9FB6
:10545C00930B4CA203C50B00E30B05D683455DA251
:10546C00EFE09F95E30505D68346340093071003C0
:10547C00638AF6000356440083C50B004E873685BD
:10548C00EFE07FA623020CA299B383CB3400A9B71B
:10549C0083274BA183CB34009149A1D3DC4395DF07
:1054AC0081450145829715BF29476398E70A8347D1
:1054BC00640037270020930D47A0A5EF83A70D00AC
:1054CC00B5C783CB0700A14903457400930684003C
:1054DC0093772500BDCB1376150013034401834746
:1054EC0004028358C4010358A40103574400034524
:1054FC0034003EC28357E401DE851ACE3EC0CE870F
:10550C00EFF00FAD8347340072438DFFDD478358B6
:10551C00C4010358A40183467400835544003EC261
:10552C008357E4011A873EC0CE8739B783CB34004A
:10553C0059BF83274BA183CB34009149D1D7DC438E
:10554C00C1D781450145829741B7B68536CEEFE08C
:10555C00DFC8F2462A86368359B70947639CE700B1
:10556C008327CAA0E38507C6DC43E38207C62285EE
:10557C008297B1B92D476398E7008327CAA0E388C7
:10558C0007C49C47DDB70D476397E70022868D451E
:10559C000355440011B919476395E7069305610259
:1055AC0013051031EF60825A2C1013052031EF6077
:1055BC00E25903566400835781020355440063E8A3
:1055CC00C700835684000357610263F7E600930516
:1055DC000002EFD04004E5BE6374E6002313E40040
:1055EC0063F4D7002314F4000357C4008356A400BB
:1055FC00035684008355640001488147EFD0600155
:10560C00F9B61D47E38FE7D031476395E700228653
:10561C00B145BDBF35476398E7008327CAA0E3882F
:10562C0007BADC4799B739476396E7002285EF0044
:10563C00F00771BE3D476398E7008327CAA0E38853
:10564C0007B89C4B1DB741476396E7002285EF00D6
:10565C001011B5BE45476396E7000145EF00902059
:10566C00BDB64947639DE70083274BA1E38B07CA6F
:10567C00DC43E38807CA8145054582975DB14D47F8
:10568C00639CE70083274BA1E38D07C8DC43E38AC7
:10569C0007C8A2850945D5B76147E394E7C82286B8
:1056AC00E145FDB593F7150089CFB727002083A7F7
:1056BC00C7A089C7DC4399C30145829713451900DC
:1056CC0045BC93F7250091CFB727002083A747A1AE
:1056DC0091C7DC4381C78145054582971345290055
:1056EC0041BC93F745000145E38407A8B727002088
:1056FC0083A787A0372400201304C4C991CF854702
:10570C002302F400B727002083A747A191C7DC43ED
:10571C0081C781450545829748442C10EF90607EE7
:10572C002810EFF0AF96B727002083D767C381CF3F
:10573C00130600643386C702B727002003C547D77A
:10574C009145EFC01FA2134549001DB4011122CC95
:10575C002A84554506CE26CAEFF0EFBAAA84130563
:10576C004002EFF04FBA2AC613055002EFF0AFB962
:10577C00AA86228562443246F240B3359000D24468
:10578C0005616FC03071797122D406D68D472E8495
:10579C00631FF50003D7A50083D6850003D66500EB
:1057AC000345340083D54500EFE0DFF109A8896794
:1057BC001387D7006311E50403C5250019E5854758
:1057CC00B25022543E8545618280B727002083A6C3
:1057DC0047A0F5D603C6360083C50600814802C231
:1057EC0002C00148814701479106EFE07FFE054565
:1057FC00EFF0AFE5E9B71387E700E302E5FC1387A9
:10580C003701631AE50003C5250055D901478146C8
:10581C000146814551BFE507E303F5FAB14763192A
:10582C00F500B727002003C5F7C9EFE0FFF441BF2F
:10583C0041677D178147E315E5F803C75500C94754
:10584C00E31FF7F683D6E50003D6C50003558400A5
:10585C0083D5A500EFC0906A41C95D45EFF0AFAAB2
:10586C003335A000231CA1008345440003552400BC
:10587C003008EF80605B83578101B1F36C0813052E
:10588C001031EF60A22C9305E10113052031EF607C
:10589C00E22B8357C101035784006374F700231470
:1058AC00F4008357E1010357A40063F4E7002315C8
:1058BC00F400835784000357A4006374F700231586
:1058CC00F40003552400EF4041760357E40083565F
:1058DC00C4000356A40083558400035524000148DA
:1058EC008147EFC0D050E1BD8547231CF100ADBF0F
:1058FC00B7270020138747D7834677001307F00F8D
:10590C00638CE60851C9411122C426C24AC006C69E
:10591C00AA840345A500138947D74105EFC00FB4EE
:10592C002A842DC59307000D2310F500D9472301B8
:10593C00F50083D744002312F50083C764002303CA
:10594C00F50083C77400A303F50083C78400230408
:10595C00F50083C79400A304F50003C6A400230537
:10596C00C50015C2CC44410548C497B0FB1FE78065
:10597C006086A285224403457900B24092440249D4
:10598C0041016FC0AFB823260500E5B7B2402244F1
:10599C0092440249410182808280C1671387E7FFEC
:1059AC00639EE500B727002083A747A09DC383C74C
:1059BC0007000D47639DA7006FC0B042FD17494714
:1059CC006397F500B727002083A747A0F5F73A8522
:1059DC0082804947EDBF397122DC06DE26DA4AD8CF
:1059EC004ED652D456D25AD05ECE62CC0347050066
:1059FC0085472A84630DF7040346850093069500BA
:105A0C009305E1000545EFE08FE0814719C183471D
:105A1C0005008346040011476383E6043727002002
:105A2C00032747A38D4603471700630AD70285CB8C
:105A3C001DC70DE10145F2506254D2544259B2597E
:105A4C00225A925A025BF24B624C2161828081474E
:105A5C000145C1B785466314D70A8D8BE1DF034539
:105A6C001400130A2400D285EFE02FF73729002009
:105A7C00A300A400832789A32A8B130989A3814936
:105A8C00C1C7B72A00209304F00F83C70AA3138C55
:105A9C000AA363FDF90203250900939B49005E9557
:105AAC008347050063849706834715006390670757
:105ABC001946D285090597A0FB1FE780807A39C566
:105ACC008324090003470400DE94B9E483460400F0
