:020000024000BC
:100000006FD0A23B00000000001801180028012852
:100010000228032800290129022903290429052986
:10002000062907290829002A012A022A032A042A64
:10003000052AA62AD8DF0600F24004006804002042
:10004000EA040020EA030020B80300205003002047
:10005000B42900208A410400AC4204004245040057
:100060005C4604004A400400F83F0400B40200204B
:1000700054020020384B04001C080020604104009A
:1000800034480400DE790600C47B06002A7C0600A2
:100090002C5506006655060000850500DA79050036
:1000A000FC73060062480400045D060012FA0400B6
:1000B000A0FA0400FEFA0400305304006E5304005A
:1000C000E451040020BC040006B70400CE2A00203E
:1000D00044C8040096CB0400A8A904004AA904005F
:1000E00016AD0400F4A9040028A90400A0A9040086
:1000F000DEA8040076AA0400CEAA04007EAA0400AA
:1001000082AA040010AB0400D6AA040006AB0400C7
:10011000E8AF0400ECAF040072AA04007AAA04005D
:100120000EAB0400EAAF0400BCAB040048B104000D
:1001300044D90400B6D90400F0D9040066BE040016
:100140007CBE0400B6BE0400C09E0400C6A004002D
:100150008EA10400D07004001A6B0400D494040033
:10016000966B04008A90040018B906004EB1060090
:1001700054B6060090CD06005ACC0600B2D0060058
:100180006ED00600AAD00600FED106000AA0060026
:100190008ED10600ECC3060012C4060032C406006D
:1001A0006ED206004ECA0600E6C90600DED2060080
:1001B0008EA2060026A3060046A30600F8A20600AB
:1001C000385D0500CA470500464B05000649050095
:1001D00058530500A0740600947306003EA0060064
:1001E000BA4C04007C560600E45C0600DC5D0600A8
:1001F000EA6B0600726C0600D06D060020C2040097
:100200003A5C0500005405009A450500AA56050011
:100210007A470500DC09002054570600D8D00600B4
:1002200072D00600A6D00600A2D00600C244040088
:100230009EBF0400E0D00600606006002661060054
:100240008E610600BCB60600DCD0060026D1060092
:100250005C7905002AD10600662000202C200020B1
:100260009CB6060032B806002ED1060082D10600E8
:1002700086D10600E4D006001ED1060022D1060079
:100280008AD10600F05C05000000000000000000BC
:10029000000000000000000000000000000000005E
:1002A000000000000000000000000000000000004E
:1002B000000000000000000000000000000000003E
:1002C00097470000938787D2174700001307875589
:1002D0006373F700828023A007009107D5BF97477B
:1002E0000000938727C317E706E0130727379746D1
:1002F00000009386A6CF63F3F600828010431107B7
:0603000090C39107CDBF80
:100308004111B7E700E022C480433707200006C642
:10031800798C23A0E7180F10000011C199E5B7E701
:1003280000E023A08710014579A80D05334505088D
:10033800130740037199B34705086366A702174579
:1003480000000325A5CA9746000083A6A6C96391A5
:10035800A602174700000327E7EB71D3C207DD8D1C
:10036800054502976DBF174500000325E5C7E1BFA6
:100378007A2131EF5A21636CF704B306F74021481C
:1003880017460000130686E36375D8028328050024
:1003980003586600938687001D8FAA966117DAA214
:1003A80023A016012393060014C15EA1130788FF3A
:1003B8007AA27A226EA12105B307F7407EA2B7E799
:1003C80000E023A08710B240224441018280084106
:1003D800BDBFB7E700E08C433707200023A0E7182C
:1003E800F98D0F10000001E523A0B7108280174394
:1003F80000000323A3BF9748000083A8A8BE9A87DC
:10040800814663FE170903A80700636DF508636B4F
:10041800A808138787006364E508F22321670507A6
:100428006319E600174600001306B6CA1822050726
:1004380018A217450000130565D8D2237A21239303
:1004480007003297334707087AA163856702174385
:100458000000032363B9630FF30003D36600631B33
:100468000300DE2223A0060121073E962106D2A220
:100478007AA1B6879843630417039746000083A6BA
:10048800A6B6630ED700762399EAD62352231843DB
:10049800A106B296D6A398C37E21A1077EA1B7E78D
:1004A80000E099B7BE86C287A9BFAA871747000090
:1004B8000327C7B3174600000326C6B2B305B540E5
:1004C8006314E6003E8529A8930687001843E3E9EC
:1004D800D7FEE3F7E7FE2E85E3E4D5FEE3F2E5FE7B
:1004E800828023AC05FE1C4199E30CC182803E87C3
:1004F80083A787FFEDFF232CB7FE8280411126C218
:10050800B7E400E04AC003A90400B707200006C604
:1005180022C43379F90023A0F4180F10000009E56C
:1005280023A0241101452DA09565938505D0C98D7B
:100538002A842105B3C5050833450508D1336DD193
:10054800FD572320050042A17CA123A024112105E9
:10055800B240224492440249410182804111B7E7E6
:1005680000E04AC003A9070026C23707200006C6D4
:1005780022C4AA843379E90023A0E7180F100000E9
:100588009747000083A7C7A60144014695E311C811
:10059800A285174500001305A5A5974004E0E7804C
:1005A80080CEA1652685974004E0E78040241DA001
:1005B80003C7E7FF631B970215CCA2851745000008
:1005C800130505A3974004E0E780E0CBA1652685E5
:1005D800EF20C068B24022852244B7E700E023A09C
:1005E8002711924402494101828011E03E8683A787
:1005F80087FF69BF3E84E5BF37E700E01C43B706C5
:1006080020002320D718F58F0F10000019C191C1C1
:1006180011E637E700E02320F71082802E960F704E
:10062800B650D5BF37E700E01C43B70620002320AB
:10063800D718F58F0F10000019C1014785E137E77A
:1006480000E02320F7108280B386E50003A80600A7
:10065800B306E5007D1623A00601110775F6C5B798
:1006680037E700E01C43B70620002320D718F58F92
:100678000F10000001C53307C50011E637E700E099
:100688002320F71082800505A30FB5FEE31DE5FEC4
:10069800F5B7B7E600E09C42370620002A87F18FBD
:1006A80023A0C6180F1000000145B306A7008386D3
:1006B800060091E637E700E02320F7108280050561
:1006C800EDB70111B7E700E026CA84434AC83707E7
:1006D800200006CE22CC2A892E86F98C23A0E71882
:1006E8000F1000009305F00432C633450608093997
:1006F8002A8401C53246CA850137F2402285624400
:10070800B7E700E023A097104249D24405618280F0
:1007180037E700E01C43B70620002320D718F58FE1
:100728000F10000001C599C1014711EA37E700E041
:100738002320F710054582800507E309E6FE330804
:10074800E500B386E500034808009422E306D8FED6
:1007580037E700E02320F7100145828037E700E003
:100768001C43B70620002320D718F58F0F10000070
:100778001307F6FFBA952A966317C50037E700E016
:100788002320F71082809821FD150505A30FE5FEAB
:10079800E5B737E700E01C43B70620002320D71849
:1007A800F58F0F10000001C53307C50019E637E7BC
:1007B80000E02320F7100145828014210505E39805
:1007C800B6FEE31CE5FE37E700E02320F7100545F9
:1007D8008280797126D2974400009384E48222D4DF
:1007E800804006D64AD04ECE52CC56CA5AC85EC6AB
:1007F80062C44DC837C9C901814B974A0000938A22
:100808002A801309F937174B0000130BAB9D974942
:1008180000009389A99A174A0000130AAAA13E204A
:1008280091EF5C4463990B009CC0032CC4002285A3
:100838004D366284A9A823A6FB00C5BF83A70A007A
:1008480082971C443307F5406376F50003278A0036
:100858001D8F2A97636BE9069747000023A8079620
:100868002E200820EF20803F5C405844A1CB0C4448
:10087800174600000326869CAE97BE8663E4B70041
:1008880063E4C700B386C74014C4A28B3A8441F816
:1008980017470000130787921C4B854663FBF60435
:1008A800FD171CCBB250225492540259F249624AA5
:1008B800D24A424BB24B224C4561828063940B0072
:1008C80098C0A5B723A6EB008DB703274B0219CB19
:1008D80063EDA7003385A74083A709016374F5007A
:1008E80023A8A900A28B40445DB703278A00BA97C2
:1008F800D5B79747000023AB078C6DB70111B7E751
:1009080000E04AC803A907003707200006CE22CC1A
:1009180026CA4EC652C43379E90023A0E7180F103F
:100928000000974400009384E4909C288844B9CF41
:1009380097470000938787C103D7C70A21CB03A431
:10094800870A6305A404974900009389298783A728
:1009580009016380A710173A0000130A6A6A8327FF
:100968000A0082976364A40E83270A00098C829781
:1009780083A7090198443354F40AB307A4003E85B9
:1009880063E4870063E4E7003385E740B7E700E006
:1009980023A027119C44639DA70217440000130459
:1009A800E48118489737000083A787656315A70A6D
:1009B80082979444374736FE130707C83697B3071C
:1009C800A7003E8563E4E70063E4D7003385D7409A
:1009D80017440000130484DA5C5C99CB9736000056
:1009E80083A6C6749C463707CDFF7D17F98F9CC632
:1009F80011E1884485475CD09747000083A7C780EA
:100A0800829715E15C5C99CF5C5089CF976006E0CE
:100A1800E780A081975006E0E78020F29747000022
:100A280023A007D87D335C5C91CB173700000327E0
:100A3800E76F1C47B7063300D58F1CC7F2406244E6
:100A4800D2444249B249224A056182809C443E947C
:100A580021BF228525BF829714489844B387A600F2
:100A68003E8563E4D700E3E5E7F63385E7408DB7D5
:100A78009737000023A0A75811C5854717370000EE
:100A8800230CF75682809737000083A7A75685C3A3
:100A9800411106C682979737000083C7E75589E753
:100AA8009737000023A80754B24041018280973746
:100AB800000083C7675491E79737000023AC0752BB
:100AC80082808280411122C426C206C64AC0974449
:100AD80000009384A4CA83C73402173400001304A7
:100AE8002474B9C7173400001304446D1739000083
:100AF8001309C951032709001C2014300146B3A566
:100B0800E7208E21A5CD11C21CA00820636FD50651
:100B1800973700002384076A9737000083A7474E5A
:100B2800C5EFB24022449244024941018280829733
:100B38001C40F5FF9737000083C7C77085E3DC4882
:100B4800858B89CFD84C9947631EF70097470000DB
:100B580023A007C4EF10B01F5C4482971C44D9D36C
:100B6800829749B7D84C9D47E31AF7FE974700008C
:100B780023A007C2EF10B01D1C48C5B7850793F71F
:100B8800F70F0546E3EDD7F641B73327E5200E23E7
:100B98002310070097370000239107469737000076
:100BA80083A74746B347F5209C4382971C2083269A
:100BB800090017370000035747443377E540B3A6C9
:100BC800D7209222518F9AA299C385071CA018207A
:100BD8001C30E368F7F42DBF9737000083A707663A
:100BE8001CC8C53E83C734028DFF83C7140299CB46
:100BF800DC4C89EB97470000A38207BA975006E0C0
:100C0800E78080009737000083A7076099DBD84CFE
:100C18009147E3E8E7F09747000083C7A791918BD6
:100C2800E39107F09737000083C7073DE39B07EE82
:100C380018308326090063C8E7002244B240924472
:100C48000249410165B933A6D7201222E31B06ECFD
:100C58008507D5B7B7C700401387C7201443139635
:100C6800264910C301000100938787261735000025
:100C7800032585569C436A0514C393C7F7FF9983D8
:100C88005D8D82809737000083A7C73891C382871C
:100C98001305F00F8280174600001306E686974674
:100CA800000093866688DC36383E4C4ABA97FD8B3E
:100CB80033D7F5001CB2DCB6058B0DE7943A130563
:100CC8000002B3F7D702814633D8E5486309080024
:100CD8006394D70018B28280850693F6F60F05074D
:100CE800E314A7FE82809747000083A767AAC1E79D
:100CF80041114AC09737000083A7873006C622C42F
:100D080026C28297174900001309098283278900A0
:100D1800638DA7046363F5041D8D973400009384E5
:100D2800A47EBC2C135455006361F404AD37BC2C6D
:100D3800032789009396570036971D8C2324E900D2
:100D4800E376F4FE22448830B24092440249814559
:100D58004101173305E06700634517370000032793
:100D6800E74DB307F7403E954DBFB2402244924449
:100D78000249410182808280011126CA973700000A
:100D880083A7072806CE22CC4AC84EC652C48297EB
:100D980097340000938444799844AA870145630DE9
:100DA800F70463E3E706998F173900001309C9753B
:100DB80093F9F70113D457008347A901636AF40232
:100DC800173A0000130A0A47F9350347A9018C446A
:100DD80003268A0093175700AE97198CBE8663E4E2
:100DE800B70063E4C700B386C74094C4E37EE4FC5D
:100DF8001315540033653501F2406244D244424928
:100E0800B249224A056182809736000083A60643CC
:100E18003387E640BA9749BF411126C2974400007C
:100E28009384C4959C4422C406C6858B173400005D
:100E380003240478A1C718289747000023A407941F
:100E48008947630DF7020146930550020145EF10EB
:100E5800701D014681450545EF103005DC44858B42
:100E680091CF2244B24092448145177505E013059D
:100E780065BE4101174304E0670003B3EF20D07259
:100E880022852244B240924441016F10107B97376B
:100E9800000083A7A775639F071C011122CC2A8431
:100EA800094506CE26CA4AC84EC697340000938420
:100EB800E426EF20907790409307800717390000C9
:100EC800130909257CD283270900973900009389E3
:100ED800E925B7053300D8572285719B136717009A
:100EE800D8D798431377F7CF98C398431377F7CF9A
:100EF8001367072098C303A709001447CD8E14C7AA
:100F0800B70603009386862534CA5457F59A54D7F2
:100F180098433424137707F893F6F607558F98C348
:100F2800EF20E0069440370500827D15DC4293E708
:100F38001700DCC203260900030784065C56937574
:100F4800F703E605E98FCD8F5CD69305A00383A749
:100F5800090063D9E50AF84FB70500074D8FF8CFA8
:100F6800B7C7898E938767ED1CC6B7575500938717
:100F780057555CC28347A40683494406B3E9F90080
:100F88008947174700002329F7809737000023ADCA
:100F9800077E7C44BCDE9737000083C7A72AD9CFD9
:100FA800FC52FDFF0C384E859737000023AC077CB8
:100FB800EF10006718289D47172500001305653DA9
:100FC8006306F70017050000130545E55534832728
:100FD800090098431317772998C3D857719BD8D716
:100FE8009737000023A6077A9737000023AA0778C7
:100FF8009C40F2406244094798C3D2444249B249EE
:10100800056182809305200263DAE500F84FB70591
:1010180000F9FD156D8FB705000589B7B70500F90B
:101028006945FD156357E500F84F6D8FB705000357
:1010380035B7F84F6D8F1317872915B718289D47AF
:101048008145172500001305C5346306F700170509
:1010580000001305A5DC974004E0E780E094103811
:101068006244F240D2444249CE85B2490145056105
:101078006F10A0638280973700009387274DE8534D
:10108800054754256390E60203C747079147631A4B
:10109800F700011106CE2AC6EF10B0553245F240CE
:1010A8000561F5B3828083278511E5CB411122C400
:1010B80006C658258345E5049437D2272A84137732
:1010C800C70F1395466063F7C50663510506882761
:1010D80093F6F60794B70546936627006314C50090
:1010E8009366170054A4D8430907D8C303250411ED
:1010F8004CB82E86CC430905EFF00FD08327841116
:101108005438D8433697D8C3DA27158FDAA78947D2
:101118003CBC034764039737000083C7C70D636966
:10112800F706B24022440145410182801367170047
:1011380058A46DBF9376F60F635505028827854539
:10114800136627006314B5001366170050A454B83B
:10115800A384070085473CBC832784119C43D5FBA7
:10116800C9B71367170058A454B8A3840700032508
:101178000411CC430905EFF02FC883278411543894
:10118800D8433697D8C3DA27158FDAA78D47E1B742
:101198005C2493E707015CA469B705458280411187
:1011A8009737000083A707F522C406C6858B2A84D3
:1011B800C5E74165130525F5978005E0E78080566A
:1011C80041CD3C253EA583270412ADE32320A4127C
:1011D8002322A41285472311F404232005007C2828
:1011E80054415EA5583418A5054718B5138517024C
:1011F800173700000327475C15811C437D151375BD
:10120800F50F9CC25C43DCC21C479CC65C47DCC62D
:101218001C4B9CCA5C4BDCCA1C4F9CCE5C4FDCCE82
:101228000DC19386060213070702C1BF8327441224
:1012380088C3835724042322A4128507B3C7070849
:1012480059BF17370000130767301E2785071EA7E9
:10125800B2402244410182805C24230904000545F0
:1012680093C747005CA4EDB7142D854763EED70AF2
:101278001C3D2A870145DDEB5C2713F507013C2B54
:1012880099CB834667039737000083C7D7F663EC8B
:10129800F60001E5828059E582808357271E0357AF
:1012A800671EBA9721A08357271E75F90145BDCF40
:1012B8009387C71217350000035585F8B3B5A70201
:1012C80037460F00411113060624814622C426C260
:1012D80006C67D543385A70297C006E0E780204103
:1012E8009734000083C494F1AA949737000083A729
:1012F800272F03A707099C433354E40AFDFB9737BC
:10130800000083A7E7CF829781476364A400B307EF
:10131800A440B240224433B59700134515009244C7
:10132800410182808147A5BF0145828082801737AD
:1013380000000327A7DE3C5BFDFF0100010082805F
:1013480035C901116C0022CC06CE2A84EF2050004A
:1013580029C9FD57630CF50417370000130787E800
:101368005453B2479DC22547637BF700938567FFB7
:10137800034594026244F24005616F10501217371A
:1013880000000327A7EBBA97D5B70C3F63E5B70072
:10139800B385B740F1BF17370000032727EABA978C
:1013A800C5BF6244F24005616F20403EF24062448E
:1013B800056182808280797152CC173A0000130A45
:1013C800EA1826D283244A0906D622D44AD04ECE19
:1013D800D5C8973700009387673AD44F1547638677
:1013E800E604DC532A8989CF975006E0E780E0E3DA
:1013F800974006E0E78060549737000023A2073A39
:10140800FD596C002685EF20A0740DE91725000012
:1014180013050538EFF0CFE59737000083A707D00D
:101428003707100098C70547B8DB0D45B25022545E
:1014380092540259F249624A4561828063743501C7
:101448003244AA898440D5FCFD571305F00FE38F79
:10145800F9FC914763F187029307B4FF2320F90051
:101468002324FA0A99E79737000083A727DD23206A
:10147800F900014565BF9737000083A727DCED1702
:10148800A297E9BF09455DB7797126D206D622D45D
:101498004AD04ECE52CC56CA5AC85EC68347550368
:1014A80003447513AA843E941374F40F93074002FF
:1014B80063F687001304B4FD1374F40F03A98413AF
:1014C80083A9C413A38B841222864A85CE8597C02C
:1014D80006E0E780001D058915E503CBD412014A13
:1014E800814A337B6403930B500252864A85CE852A
:1014F80097C006E0E780E01A05890DC563916A0385
:101508001374FA0F238B8412B25022549254025946
:10151800F249624AD24A424BB24B45618280850AFF
:10152800939A4A60050AE3127AFDE9BF8327850981
:1015380003560504797193D60701BD8EB3C6060814
:10154800358E93575640898B135776485D8F93573E
:101558003640918B5D8F93571640A18B5D8F931703
:101568001600C18B5D8F9317360093F707025D8FC6
:101578009317560093F707045D8F9317760093F738
:10158800F70F22D45D8F2A849357D6001355B600DF
:101598001189898B93558600C98F1355F6002582CA
:1015A800C98F218AD18F13961500418AD18F13963E
:1015B800350013760602D18F13965500137606046C
:1015C800D18F139675001376F60FD18FA207C545F4
:1015D8005D8F3307B70226D24AD04ECE0329841333
:1015E8008329C4135AC806D652CC56CA36973347ED
:1015F800070813565740098A93577748D18F1356CF
:101608003740118AD18F13561740218AD18F13166C
:101618001700418AD18F1316370013760602D18F2F
:101628001316570013760604D18F13167700137616
:10163800F60FD18F1358B7001356D7001378480008
:10164800098A13558700336606011358F700258366
:1016580033660601218B518F13161500418A518F6D
:101668001316350013760602518F1316550013769C
:101678000604518F131675001376F60F518F220743
:10168800D98FB387B7025EC6B697B3C7070813D515
:101698005740098913D77748498F13D5374011899F
:1016A800498F13D517402189498F13951700418910
:1016B800498F1395370013750502498F1395570005
:1016C80013750504498F139577001375F50F598D18
:1016D80013D8B70013D7D70013784800098B13D64F
:1016E80087003367070113D8F700A583336707011D
:1016F800A18BD98F13171600418BD98F131736007A
:1017080013770702D98F13175600137707041E069D
:10171800D98F1376F60FD18FA2073367F5003307F9
:10172800B702130650024A85CE853697B98EB3C4E0
:10173800060833F6C402137BF60F97C006E0E7806D
:1017480040F6058905E9834AD412014A930B5002F1
:10175800B38A9A02814493DA0A0126864A85CE859D
:1017680097C006E0E780E0F305890DC563914A0359
:1017780013FBF40F230B6413B250225492540259F2
:10178800F249624AD24A424BB24B45618280050A0D
:10179800137AFA0F8504E39274FDE9BF8327C5081D
:1017A80003568508797193D60701BD8EB3C606081E
:1017B800358E93575640898B135776485D8F9357CC
:1017C8003640918B5D8F93571640A18B5D8F931791
:1017D8001600C18B5D8F9317360093F707025D8F54
:1017E8009317560093F707045D8F9317760093F7C6
:1017F800F70F22D45D8F2A849357D6001355B6006D
:101808001189898B93558600C98F1355F600258257
:10181800C98F218AD18F13961500418AD18F1396CB
:10182800350013760602D18F1396550013760604F9
:10183800D18F139675001376F60FD18FA207C54581
:101848005D8F3307B70226D24AD04ECE0329040A49
:101858008329440A5AC806D652CC56CA3697334703
:10186800070813565740098A93577748D18F13565C
:101878003740118AD18F13561740218AD18F1316FA
:101888001700418AD18F1316370013760602D18FBD
:101898001316570013760604D18F131677001376A4
:1018A800F60FD18F1358B7001356D7001378480096
:1018B800098A13558700336606011358F7002583F4
:1018C80033660601218B518F13161500418A518FFB
:1018D8001316350013760602518F1316550013762A
:1018E8000604518F131675001376F60F518F2207D1
:1018F800D98FB387B7025EC6B697B3C7070813D5A3
:101908005740098913D77748498F13D5374011892C
:10191800498F13D517402189498F1395170041899D
:10192800498F1395370013750502498F1395570092
:1019380013750504498F139577001375F50F598DA5
:1019480013D8B70013D7D70013784800098B13D6DC
:1019580087003367070113D8F700A58333670701AA
:10196800A18BD98F13171600418BD98F1317360007
:1019780013770702D98F13175600137707041E062B
:10198800D98F1376F60FD18FA2073367F500330787
:10199800B702130650024A85CE853697B98EB3C46E
:1019A800060833F6C402137BF60F97C006E0E780FB
:1019B80040CF058905E9834A1408014A930B500270
:1019C800B38A9A02814493DA0A0126864A85CE852B
:1019D80097C006E0E780E0CC05890DC563914A030E
:1019E80013FBF40F230F6407B25022549254025988
:1019F800F249624AD24A424BB24B45618280050A9B
:101A0800137AFA0F8504E39274FDE9BF8327450929
:101A180003568508797193D60701BD8EB3C60608AB
:101A2800358E93575640898B135776485D8F935759
:101A38003640918B5D8F93571640A18B5D8F93171E
:101A48001600C18B5D8F9317360093F707025D8FE1
:101A58009317560093F707045D8F9317760093F753
:101A6800F70F22D45D8F2A849357D6001355B600FA
:101A78001189898B93558600C98F1355F6002582E5
:101A8800C98F218AD18F13961500418AD18F139659
:101A9800350013760602D18F139655001376060487
:101AA800D18F139675001376F60FD18FA207C5450F
:101AB8005D8F3307B70226D24AD04ECE0329040BD6
:101AC8008329440B5AC806D652CC56CA3697334790
:101AD800070813565740098A93577748D18F1356EA
:101AE8003740118AD18F13561740218AD18F131688
:101AF8001700418AD18F1316370013760602D18F4B
:101B08001316570013760604D18F13167700137631
:101B1800F60FD18F1358B7001356D7001378480023
:101B2800098A13558700336606011358F700258381
:101B380033660601218B518F13161500418A518F88
:101B48001316350013760602518F131655001376B7
:101B58000604518F131675001376F60F518F22075E
:101B6800D98FB387B7025EC6B697B3C7070813D530
:101B78005740098913D77748498F13D537401189BA
:101B8800498F13D517402189498F1395170041892B
:101B9800498F1395370013750502498F1395570020
:101BA80013750504498F139577001375F50F598D33
:101BB80013D8B70013D7D70013784800098B13D66A
:101BC80087003367070113D8F700A5833367070138
:101BD800A18BD98F13171600418BD98F1317360095
:101BE80013770702D98F13175600137707041E06B9
:101BF800D98F1376F60FD18FA2073367F500330715
:101C0800B702130650024A85CE853697B98EB3C4FB
:101C1800060833F6C402137BF60F97C006E0E78088
:101C280040A8058905E9834AF408014A930B500244
:101C3800B38A9A02814493DA0A0126864A85CE85B8
:101C480097C006E0E780E0A505890DC563914A03C2
:101C580013FBF40F230F6407B25022549254025915
:101C6800F249624AD24A424BB24B45618280050A28
:101C7800137AFA0F8504E39274FDE9BF411126C275
:101C880006C622C44AC09734000083A4A49163897D
:101C9800041003A4C40AAA86054525C43C241307D6
:101CA800700A6392E70858301C341729000013099A
:101CB800695803268900B387E7020357C900B38729
:101CC800E7021307003293870719B3D7E70203A780
:101CD80044093E97BA846364F7006364C700B30499
:101CE800C7409727000083A7A73184C28297B3878C
:101CF800A44063F5A40003278900BA9789EB13056C
:101D0800F00FB24022449244024941018280583087
:101D18009306204E3307D702E3F3E7FE930780FAD2
:101D28003CA40145F9BF1307800AE39AE7FC97270B
:101D3800000083A7E72C82972A893545EF20E00E1B
:101D4800AD47173700002329F7A458301C3417264D
:101D580000001306264EB387E7025A261046B387BB
:101D6800E7021307003293870719B3D7E70203A7DF
:101D780044093E97BA866364F7006364C700B306F4
:101D8800C740E31ED9F617D505E01305E5A5EFE032
:101D98003FCE9727000083A767380947F8D785B74C
:101DA800054585B7397156D2973A0000938A0A9D3E
:101DB80083A70A033707080026DA06DE22DC4AD89A
:101DC8004ED652D45AD05ECE62CC66CA6AC86EC6A7
:101DD800F98F9724000083A4E47C638A071C83A9F5
:101DE800C40A83C7990003A4C90092073E94282017
:101DF800B14705053305F5025E203E9533450508D4
:101E0800EFE0CFEFAA8C630F051A130DC50023244A
:101E1800A50134203146370B0300B386C6022313CD
:101E280004000149172A0000130A4A2F972B0000C3
:101E3800938B0B2E972D0000938D4D2F130B8B1525
:101E4800054CEA9654C483C679009307D0078325C6
:101E58000A00B386F602C1679CC5370833008606B8
:101E6800B4D183A60B0090421376F6CF90C290426D
:101E78001376F6CF1366062090C203A50D00104511
:101E88003366060110C503A6090023A86505930556
:101E9800500290C672205444B2962324DD001430B8
:101EA8000146CA96A301DD0003C504089736000061
:101EB80023A8068CEF00101783260A00CC46139639
:101EC8001549D0C60F10000083260A003706020005
:101ED80090C61306000823A8CA0003A60B001042E8
:101EE80013567648631E860B1306E018F0D2CCC64C
:101EF80017360000232E068817360000232206888E
:101F080023A08601A925EF10306A83A64A00858A96
:101F1800D9CAEA85268597E005E0E78000950DE9AE
:101F280003465D0049C276204E20B29663DDB606B0
:101F3800B428AC4803258D00918E8906B695EFE04C
:101F4800AFEB23020D0003465D007620B29676A023
:101F580003260A00310D3452FDFE34200509137999
:101F6800F90FE362D9EE9C246685A381FC001C204E
:101F7800A3820C002383DC002382FC006254F2500D
:101F8800D2544259B259225A925A025BF24B624CCD
:101F9800D24C424DB24D2161172305E0670003ADD5
:101FA8001306E01AA1B7FD562302DD0055B797279F
:101FB800000083A7A716FC5791C78547172700007D
:101FC800230CF702F2506254D2544259B259225AA1
:101FD800925A025BF24B624CD24C424DB24D216197
:101FE8008280797122D426D22E84AA84414697C54C
:101FF80006E0938565AB0A8506D6972004E0E7805E
:10200800E01B414697C506E0938505AA0808972076
:1020180004E0E780A01A3C3010088A85DC875C2041
:1020280026855C875C30DC86973006E0E780004BCD
:102038000347F1011C200145631EF7000347E10136
:102048001C3001456318F7000345D1013C201D8D64
:1020580013351500B2502254925445618280011103
:1020680022CC26CA4AC84EC606CEAA841724000027
:102078000324045A13092500854905C09C303830CB
:10208800858B6304F700405CCDBF19469305440077
:102098004A85EFE0EFE7E31835FFF2402285624416
:1020A800D2444249B24905618280411122C426C204
:1020B8004AC006C61724000003248455930425004B
:1020C800054901E8B240228522449244024941016F
:1020D8008280A6851305A4022937E30525FF405C05
:1020E800CDB7411122C426C24AC006C61724000033
:1020F8000324045293042500054901E8B2402285CF
:1021080022449244024941018280A6851305A40114
:10211800C93DE30525FF405CCDB7011126CA6441DE
:1021280022CC4AC84EC652C406CE2A841D499309F9
:102138006505054A3C4463E4F4000545A1A058340C
:10214800DC2063192705034784026304F7008440F1
:10215800D5B7D83083475405E31BF7FE19469305D6
:10216800640513856400EFE0AFDA8547E311F5FEF7
:10217800D82483479402E31CF7FCFA243E34E3187E
:10218800F7FC0145F2406244D2444249B249224A2E
:1021980005618280E31DF7FAD83083475405E318B8
:1021A800F7FA1946CE8513856400EFE06FD6E31081
:1021B80045FBC1BF411122C406C626C24AC0172426
:1021C8000000032424405DC88347840B1307700A6A
:1021D8006393E7080347140E8347A40B17290000ED
:1021E8001309490583268900B387E7020357C90005
:1021F800B387E7021307003293870719B3D7E702BB
:102208000327440A3E97BA846364F7006364D700DF
:10221800B304D7409727000083A787DE04C18297BD
:10222800B387A44063F5A40003278900BA9785CB38
:102238000347140E9306204E3307D70263F1E702D3
:10224800930780FA230CF40A0145B24022449244D1
:102258000249410182801307800A639EE70017251F
:1022680006E013054543EFE0BF809727000083A7EA
:10227800E7EA0947F8D71305F00FC1BF0545F1B7DD
:10228800011122CC26CA06CE2AC42EC61724000065
:1022980003248437854419E001450DA09C84183037
:1022A800858B6304F7000044FDB719469305A10028
:1022B80013052400EFE0CFC5E31795FEF240624412
:1022C800D244056182800000EFE0EFFB730000005C
:1022D8000000000097220000938202D203830200CC
:1022E80023800200630F0300F32510342EC09705E6
:1022F80000009385A5FD73901534EF00E05A730034
:10230800203086DCEF00405AE65082800000411100
:102318004AC0172900001309A9DF0327090026C2AC
:1023280006C61C5F22C497240000938424DE93D73A
:102338006748C1C7930700061CDF17240000130471
:10234800E443184C930700086317F7009C409C432C
:1023580093F707041CCC1C4093F7070499CB9727E5
:10236800000083A7E7C9829748D81C4093F7F7FB7A
:102378001CC01C4093F7070299CF1C401727000088
:102388000327C7D9B706080093F7F7FD1CC05C54AC
:1023980014C786077CD71C4893F7070499EF85472D
:1023A8005CC8370702009727000083A727D798C77C
:1023B8001307000C18C81854F8D383270900985F2E
:1023C8001357474805C3985F1367070198DF972796
:1023D800000083A7A7D423A2070685471727000074
:1023E8002326F73A9C40D8431357174819C7D843B0
:1023F800759BD8C3D843799BD8C3B2402244924432
:10240800024941018280213773002030972700005C
:102418009387C7363707040088DB698F11CF1727E2
:1024280000000327A7CFFD5634D7972600009386D0
:10243800E6D8D84E0507D8CE137785000DC3984740
:102448009726000083A6C6CC1367170098C7130702
:10245800000898CBD856719B13671700D8D6137706
:10246800150011CFD8439726000083A666CA1367C4
:102478001700D8C3D856719B13671700D8D613779F
:1024880065000DC31377450059C7984313671700B4
:1024980098C39726000083A6A6C7D856719B1367D2
:1024A8001700D8D64167698F0DC39726000083C6E9
:1024B8002611C18A1727000013074709B5C28346AA
:1024C800470793E60602230AD70637070200698FF3
:1024D80011CF984B1377070819C3054798CB97274F
:1024E800000083A7A7C33707020098C7B7070800EB
:1024F8007D8D0DC1172700000347970C058B972783
:1025080000009387A7041DCB03C75707136727004D
:10251800A38AE7068280D84713671700D8C795BFF4
:10252800834647070946BD8A6388C600834647072E
:102538000D46BD8AE39BC6F8914671B703C7570796
:10254800118B69DB03C7570713678700D1B7972635
:10255800000083A6A6BC97270000938727229843EC
:10256800058B19E7D843058B01E7F8526DFBDC4B67
:102578009727000023AE07208280972600009386C5
:1025880026B92A8788421C5D93D75748C1EB81C575
:102598001C59BD839CA115C69C42945BC60693D763
:1025A800660163D6060093E707C0B3C7070883161A
:1025B800060093975760A9CABE968947B3C6F60224
:1025C80016A29727000083A767B5BC4B083393D79B
:1025D80057488DCF29C59726000083A6A61B93F6DA
:1025E80006049307950009459DCABA979C23054799
:1025F800194593F6F7066394E602014593974760F9
:1026080063DF0700394582801EA265BF2A974833D9
:102618001375F5077D153335A00082800545828046
:102628009727000083A707AF99CB944BD04B9842CC
:10263800518F98C294439C479842D98F9CC21726C1
:1026480000001306A6AD054818429726000083A689
:1026580026AC9727000093876712631D05038842FD
:102668001365050888C283C62702B3C5D52093859C
:10267800A50C54471395164948C70F100000184277
:1026880037060200860510C71306000890CB6CD3E6
:1026980054C7828088421375F5F788C283C627021B
:1026A800B3E5D5209385E50EE9B7411126C2AA877F
:1026B80006C622C42E8597240000938424A6B285DA
:1026C800C9EF9C40F8537DFF3707020098C797274A
:1026D800000023A9070AB7E700E03707200037F40E
:1026E80000E023A0E728130404D01C48ED9B1CC875
:1026F8001C4893E787031CC87300501015379727A9
:10270800000083A7E7A098431317772998C3D857E1
:10271800719BD8D79727000023AC0706972700009E
:1027280023A007069C40094798C31C4893E78700E5
:102738001CC87300501094401727000013070704A3
:102748001C47858B91E75C47858B99E3FC52EDFB31
:10275800B24022449244410182800D47639AE704C3
:102768009727000023A007029727000023AE070041
:10277800B7E700E03707200037F400E023A0E72898
:10278800130404D01C48ED9B1CC81C4893E787031E
:102798001CC87300501069359727000083A7479716
:1027A80098431317772998C3D857719BD8D7B5BFC3
:1027B8000547E392E7F837F700E0130707D0144B13
:1027C800ED9A14CB144B93E6860314CB7300501088
:1027D800984050479316164954C70F100000984068
:1027E800B706020014C7930600089725000023AF18
:1027F800D5F89726000083A6A691944293D67648EA
:10280800639FF6009307E0187CD350C737F700E0C2
:10281800832707D193E787002328F7D019BF9307A9
:10282800E01ADDB79727000083A7C78E89CFD44366
:1028380003A8870098423367070198C2D447DC4B46
:102848009842D98F9CC205479727000083A7478CD9
:102858009505631BE50298431367070898C3984FCB
:10286800137707C01367A71398CF13078007B8BB60
:10287800939735009387C70319C293171600172734
:1028880000002321F7F2828098431377F7F798C363
:10289800984F137707C01367271398CF1307F007CC
:1028A800B8BB93974500F9B79727000083A7078718
:1028B8008847D847798D01C988C79727000083A71B
:1028C800A78591C38287828089671727000003271D
:1028D800E784938707F47CD39726000083A60685B0
:1028E80083A7060993D7A74991C783A7060993D752
:1028F800974999E37C53EDF78280411106C622C4BB
:1029080026C24AC063030510AD472A8463EAA70CB0
:102918001304F5FF1374F40F1385F5FF01469305AF
:10292800F00F1375F50FFD3D972400009384048084
:102938009840171900001309A97D136404045C5713
:102948001374F407170500001305250DF59B5CD7D4
:10295800032709001C4393F707F8C18F1CC3B74727
:102968007671938797121CC7B757550093875755A9
:10297800171400001304847A5CC3184097270000DA
:1029880023AE07DE5C43F99B5CC3A547172700000D
:102998002324F7E0EFE0CF8D14409727000023A908
:1029A80007DE9727000023AD07DC032709008547CA
:1029B8009CC21C4337063300014593F7F7CF1CC36D
:1029C8001C4393F7F7CF93E707201CC398401C4795
:1029D800D18F1CC7B707030093878715BCCA05A00A
:1029E800B1476307F5029307600263E5A700130484
:1029F800E5FF0DB7930770024945E30FF4F0B240C5
:102A0800224492440249410182801304500229B7AA
:102A18001304600211B717270000032767D6058B38
:102A280097270000938787B201CF17170000032765
:102A3800276E185F1357574801E79A2705079AA783
:102A480003C68703EC33C8234DBDAA8717150000BA
:102A58000325855B11E182803A216315B7001821AF
:102A6800E30BF7FE4845FDB7411122C406C626C24E
:102A78004AC02E849DCD13F9150081474147630450
:102A88000904131745003E97B1463307D702971438
:102A9800000083A4E457B317F02833C90708BA9491
:102AA8009C40C840829723A0040023A2040033441A
:102AB8008900B24022852244924402494101828021
:102AC800B356F448DDFE8507E39CE7FECDB7011158
:102AD80026CA06CE22CC4AC84EC6AE84B1C593F7E4
:102AE800150001444147A1CF93174500A2973147EC
:102AF800B387E702971900009389895103A9090050
:102B08003E998327090081C70325490082973147E9
:102B18003307E40283A70900BA979C478DC733148B
:102B28008028B3470408BD8CF24062444249B24948
:102B38002685D24405618280B3D68448D5F605043B
:102B4800E31CE4FECDB72320090023220900C1BFFE
:102B58007971B7E700E022D4804352CC06D626D25A
:102B68004AD04ECE56CA5AC85EC662C43A8A370799
:102B78002000798C23A0E7180F10000005E123A09E
:102B880087100945B250225492540259F249624AB8
:102B9800D24A424BB24B224C4561828097170000C3
:102BA80083A70746B6892A89AE8A328B971B00000D
:102BB800938B0B46829703A70B008144B146C1470C
:102BC800338CD40233068701104241E2C1659385F4
:102BD80005F04145EFD0CFF219ED9717000083A714
:102BE800676381C7814511458297B7E700E023A055
:102BF80087102D4541BF171700001307E7401C43F6
:102C0800A1E308C323000500B31790283EA183A7BA
:102C18000B00232605002324650123224501E297A2
:102C280023A0270123A2570123A447016384090095
:102C380023809900B7E700E023A08710014599B7E2
:102C48003E87DC47F5FF48C775BF8504E39AF4F66D
:102C5800B7E700E023A0871021452DB7B7E700E0CC
:102C68009843B706200023A0D718758F0F100000CF
:102C78009716000083C69654637FD5009716000008
:102C880083A6C6383325D5201621D58D0EA123A0BD
:102C9800E7100145828023A0E7100D4582800111CD
:102CA800B7E700E022CC80433707200006CE26CACB
:102CB8004AC8798C23A0E7180F100000BD4763E9C4
:102CC800A70431473307E5029717000083A7473465
:102CD800BA979C4395CF3315A0282E89B34505088C
:102CE80001452EC69D33AA8409C9B24501459710EE
:102CF80004E0E780407423A42401B7E700E023A0A0
:102D080087100145F2406244D244424905618280FD
:102D1800B7E700E023A087100945EDB79716000034
:102D280083C6467E9717000083A707370147639439
:102D3800E600014582808E23138687026394A500EE
:102D48003E85828005071377F70FB287CDB79717AF
:102D5800000083C7377BAA8685071715000003255F
:102D68006534014712216307D60005071905E36B8F
:102D7800F7FE014582802A871715000003250533D1
:102D880011E182801C45B227636BC70003584500D8
:102D9800B306C8006355D70081466394060108410D
:102DA800C5B703D3A700938807016316E30091C151
:102DB80092A13E8582808506C687B3C60608F1BF04
:102DC8009716000083C606749717000083A7C730BC
:102DD80001476394E60001458280AE231386C7034A
:102DE8006394A5003E85828005071377F70FB287A5
:102DF800CDB7411122C406C6971700002382077C6D
:102E0800171400000324442E05C06C390145B3157E
:102E1800B028B3C50508972004E0E780E0AE930723
:102E280010273305F50202942244B240814501453A
:102E38004101172304E0670023B7383D09C734254B
:102E48006312D7027DB73C2DF5DF3825E30CF7FE7A
:102E58003CA5814517E5FFFF13052522172304E04C
:102E6800670083B43C2D89C7E394F6FE38A5D5B72F
:102E7800F1FAEDBF41114AC0172900001309099062
:102E88008327890022C426C206C6971400009384AB
:102E9800E46B858BE0509DCB9727000023A4078E19
:102EA80083C74407C18B85CFEF00107083C74407E1
:102EB80093F70702E5DF83C74407228593F7F70CEA
:102EC800238AF406974005E0E780A0D7EF00D06D8D
:102ED80022852244B24092440249410119BF83C766
:102EE8005407858B91CBEF00306C8D47230EF40689
:102EF800BC5822858297D9BF83C744071547BD8B25
:102F08006394E7048347B4060345340601469305F2
:102F180050025D8D013A014681450545EFF0EFF815
:102F28008327C900858BDDD322859727000023AD31
:102F38000784974005E0E780E0B849F9B2402244A9
:102F4800924402494101828083C744071947BD8BD7
:102F5800E39EE7F68347B406034534060146930526
:102F680050025D8DEFF01F8C014681450545EFF05D
:102F7800CFF38327C900858BB1DB22859727000013
:102F880023A40780974005E0E780608D7DB7411155
:102F980022C426C206C67C2578452A84BD8B1CA976
:102FA8001CA31D476445639BE7340547B8A08347C6
:102FB800F5058D466395D7185E2DCDE37C491147FD
:102FC800B18B638DE70831476398E700034715061F
:102FD8008347F5076304F7088547BCB0194693058E
:102FE800640313854400EFD02FE1BC20990793F7C1
:102FF800F70FBCA0034704061377070401CFB830C6
:1030080013670704B8B07844BA975838B8B3BC20E7
:103018008507BCA0971700002384075ABC2013F724
:10302800F703050718B80347E4051A07D98FBCA0AA
:1030380083475403858B91E7034744038947631704
:10304800F70078441C2393E707041CA37C44183832
:1030580098B3B2402244924441018280A147BCB057
:103068008357C406971500009385454E1716000030
:103078001306C60ADCA08357C40603471406744423
:10308800A1831207BD8BD98FDCB2B420854789068E
:1030980093F6F60FB4A01717000003476752631E94
:1030A800F706183C9387E6008E07231AF4069387E1
:1030B800C708B387E702794510420948238A0507FC
:1030C800C1650CC6938707FBB3C7070893877716B4
:1030D800B3C7A70233C70708B387A70286073CD23E
:1030E800BC3093E70701BCB07C44B69783462406FE
:1030F80093E60604B4B3B4207C44B697D8A3B420AE
:103108007C4421837D8BB697834634069606558F7B
:10311800D8B3BC208D07BCA011B71042F94738526C
:1031280005833357F7023C5268528583FD8BAA9773
:103138007CD28D47238AF5063347070855B71946C9
:10314800639DC7125E2DC1E393056503B8B013856F
:103158004400EFD06FCABC201385A4009907BCA017
:10316800BC3093E72700BCB083475403898B95CFC5
:103178000C58BC299DCB1946D105EFD0EFC7784430
:103188001C2393E707F81CA3BC20990793F7F70FB4
:10319800BCA00347040613770704E30D07E6B43021
:1031A800784493E60604B4B085B58347D40391C741
:1031B80078441C2393E707F81CA319469305E403F6
:1031C800EFD08FC3D1B7A147BCB08357C506DCA0E9
:1031D8008357C506034615066C45A1831206BD8BA9
:1031E800D18FDCB1B02017150000130525369715CF
:1031F80000009385A5F209061376F60FB0A097177D
:10320800000083C7E73B6398E704183C9307E60090
:103218008E07231AF4069387C708B387E70279480D
:103228008946230AD5069441C1658CC6938707FB56
:10323800B3C7070893877716B3C7070333C70708C9
:10324800B38707038607BCD2BC3093E70701BCB03D
:103258007C44B29761BD8C41B851F9470583335717
:10326800F702BC5103A845068583FD8BC297FCD1A4
:10327800230AD50633470708C1BFA147BCB0835707
:10328800C506DCA08357C506034615066C45A18311
:103298001206BD8BD18FDCB1B020171500001305C5
:1032A800E52A09061376F60FB0A09717000083C722
:1032B80027319715000083A565E6E39FE7F8183CDA
:1032C8009307E6008E07231AF4069387C708B38787
:1032D800E702F9460948230A0507416588C5938727
:1032E80007FBB3C7070893877716B3C7D70233C757
:1032F8000708B387D7028607BCD1B9B70547639ECD
:10330800E706B1471CB983475503898BA1CB0C59F4
:10331800BC29A9C71946D10513858400EFD0CFADC4
:1033280078441C2393E707F81CA3684419469305BF
:1033380064030905EFD04FAC11679717000083A706
:10334800E72DF98FE38607CE7C24B98BE39207CE6D
:1033580078441C2393E707021CA3D9B98347D403F5
:1033680089C79C2093E707F89CA0684419469305F1
:10337800E4032105EFD04FA84DBF522D0C559307FC
:10338800660093F7F7031CB913858400E5B70111AC
:1033980026CA971400009384643E9C4422CC06CE2F
:1033A800171400001304841A858B6850D9C32AC6E1
:1033B8009717000023A8073CEF00101F0347440796
:1033C800894732456307F700034744078D47631E63
:1033D800F7029716000083A666D4BC520357450728
:1033E80085831307C71263F2E702BC528583B1C312
:1033F800914703474407E31EF7FE6244F240D24474
:103408000561174305E06700A3AC382D3C3D09CFA3
:1034180034256309D7026388F60238A56244F2406E
:10342800D24405616FD0BFA699CF382509EF3CA5D6
:10343800F5B72AC6EF00501762443245F240D2442D
:10344800056145BAEDF7DC4CEDF7034744078947BA
:103458006307F700034744078D47E31CF7FC9147D0
:1034680003474407E31EF7FE49BF63000532011115
:1034780022CC06CE26CA4AC84EC652C456C25825C1
:1034880085472A846318F72C971700009387072F1E
:10349800D44F1547638AE600D44F0D476386E6008C
:1034A800D84FAD476312F7026C386244F240D244F9
:1034B8004249B249224A924A01450561B315B028EA
:1034C800B3C505086FF08FF9163113070064971418
:1034D80000009384A4073347D7029C20E8D08507CF
:1034E80093F7F70F9CA063CAE700972004E0E780F2
:1034F800A08997170000238B070478249D47631F32
:10350800F70483479406B1C38356040763ECF602B5
:103518000C24930730041CAC1305300493F6F60F03
:103528000146977006E0E78000A522856244F240D4
:10353800D2444249B249224A924A0561174305E0FA
:103548006700434885062318D406930530020545CD
:10355800971004E0E780807B2301A4060549238AAD
:103568002407183C8D47631CF70E971004E0E7808A
:1035780000E30D89630F051463162517930760028E
:103588003CA4930750023CAC9307700278243CBCDF
:1035980085476302F70889659385F5701305102739
:1035A800171A0000130A0AC983497401971004E026
:1035B800E78040780E30835ACA002A8913060064CF
:1035C800B3855503814613850532B335B50097A0F9
:1035D80006E0E780C011AA84B335590337460F00C7
:1035E8001306062481463305590397A006E0E780B1
:1035F800001083270A00AA948297B307950003272F
:103608008A00BE8563E4A70063E4E700B385E7406A
:103618004E85EFF0CFE883475403898BE9CB834786
:10362800C403F1C70C58E1C5BC25F1C38947230A77
:10363800F4021946B10513056403EFC0FFFB034705
:10364800C407894763E9E70A22856244F240D24405
:103658004249B249224A924A05616FD05F8389463E
:103668007C346315D70213F7170019CB898B13071E
:10367800500291EB9307700238A43CAC814739B7EC
:1036880013076002C5BF93076002FDB799CF93F691
:1036980017001307500291E6898B13B71700130719
:1036A800670238A4230D0400D1BF3C2C1307400245
:1036B8006368F700930750023CAC3C2C3CA47DBFE8
:1036C800850793F7F70F3CAC13077002E364F7FE26
:1036D800EDB713077002930750023CAC38A4930768
:1036E80060026DB51307500293077002FDB7854756
:1036F800230AF402A9B70327C40A9716000083A671
:1037080026903C27ADC31C37583397140000938488
:1037180064B29044B387E702DA24B387E702130759
:10372800003293870719B3D7E702032744093E9766
:103738003A896364F7006364C7003309C740829617
:10374800B307A9406374A9009844BA97035764075C
:10375800E3FCE7EEF2406244D2444249B249224ACD
:10376800924A0561828083248409829663E9A400D1
:10377800835764073385A440E378F5ECE1BF9717D6
:10378800000083A7A7ABBE94E5B7828001114EC69F
:1037980097190000938989DB22CC03A4C90926CA9A
:1037A80097140000938404A9DA244AC803596408CA
:1037B8008327040906CE3309E90237470F00930629
:1037C800F7231307072452C456C25AC036993359EF
:1037D800E90263E02705171A0000130A6A82338991
:1037E800274183270A0082976368A9023305A94005
:1037F8006347050283570404A30F040085072310B9
:10380800F40483470414639707102285EFD0DFC7B9
:1038180029A29844BA97C1B79C443E99C1BF83274F
:103828000A008297032784086363E50A198D7E3CA2
:10383800DA248E07B387E702130700329387071944
:10384800B3D7E70263E9A708B74A0F00138BFA2337
:10385800938A0A248357040485072310F4048347B2
:10386800041481E72285EFD03FC22285975005E0F6
:10387800E780C0FD63130524032604090327C40851
:1038880094443297BA876364C7006364D700B30768
:10389800D740783CD2242328F408050778BC03577E
:1038A80064083307C7025A97335757033389E740E9
:1038B80063F5E700998E3389F60083270A0082971B
:1038C8006365A9043305A940E34605F825B79C4478
:1038D800998F3E95A9BFA1452285975005E0E780BD
:1038E80000EFA305A4029717000083A7A792638699
:1038F800071C6244F240D2444249B249224A924AE1
:10390800024B89451545056182879C44CA973385D2
:10391800A7405DBF2285EFD07FC12285975005E083
:10392800E780C0F2631B0518CA2483576408B746AA
:103938000F001386F623B387A7029386062403276E
:103948000409230B040283AA8400B297B3D7D702D1
:10395800636FF716B307F7408326C4082324F408D7
:10396800014BB387E6003E8963E4D70063E457015F
:10397800338957411E3023282409A1CB83560404D8
:103988005A3037460F0056B03387E640B387E70210
:103998003A301306062481468145BA97B3C707080B
:1039A8003385A7023EB097A006E0E78040D411CD4A
:1039B8004A9533392501CA95AA876314BB00636405
:1039C8005501B30755412328F40883270A00829735
:1039D8002A8983270A008297E30D25FF83270A0097
:1039E8000329840882976369A90E3305A9406306F1
:1039F800051003DAC4008357640837490F0013071A
:103A0800F923B387470313090924BA97B3D72703C0
:103A1800170700000347977EBA9763E0A70EB335F0
:103A28002503035B2402528681463305250397A0AC
:103A380006E0E780C0CBB30AAB0033054B0337463B
:103A48000F00130606248146814597A006E0E7800B
:103A580000CA15C1B337250352868146B305B9029A
:103A68003305A902BE9597A006E0E78040C8330B4E
:103A7800AB402311640335454D2E23AE89083834F5
:103A88008547631EF704930700FD7CA41705000013
:103A9800032545679C28A1CFEFC09FFD95471717C1
:103AA8000000232BF7CE370710009707000083A7E5
:103AB800E76698C7860A23A85707F2406244D244AB
:103AC8004249B249224A924A024B05618280B306B2
:103AD8005701B387F64049B59C443E9939B79307D7
:103AE80010FC7CA4170500000325456165B78145D6
:103AF800971004E0E78040EB55B79717000023A51F
:103B080007AE9C2885C7170500000325255E97107A
:103B180004E0E780C0266244DC40F240D2444249D7
:103B2800B249224A924A024B056182878345940230
:103B38006244F240D2444249B249224A924A024B74
:103B480001450561B315B028B3C505086FF00F919D
:103B5800011122CC26CA4EC606CE4AC852C456C245
:103B68005AC038358547832405092A84AE896314E9
:103B7800F70C83570508835AC503170A0000130A70
:103B88006A6B035BCA0063FE57191429639BE61826
:103B980003278511631707180327450A63130718B6
:103BA80074351D47639FE6162A3DB38AFA4093078A
:103BB800204E330555030329440937460F001306E1
:103BC800062481463305F5029707000083C707637B
:103BD80033592503B335AB023E99334909082313FA
:103BE80024093305AB0297A006E0E78040B0B3078D
:103BF800950033B5A7002E9503278A00BE8419E1E6
:103C080063E4E700B384E740B307690337470F006D
:103C18009306F7231307072423A09900B697B3D771
:103C2800E702D69763E4F4009D8C31A003278A004D
:103C3800B307F740BE94170900001309693C8327AE
:103C4800090023A09900829763E2A4103385A44059
:103C5800635D050A83270900170B0000130B8B5DB2
:103C6800829703A709006369E50E198D7E3C035707
:103C7800CB008E07B387E702130700329387071933
:103C8800B3D7E70263EFA70C374A0F00930AFA236A
:103C9800130A0A248357040485072310F40483476E
:103CA800041481E72285EFD02FFE2285975005E086
:103CB800E780C0B961E5832604098327C408032780
:103CC8008B00B697BE8463E4D70063E4E700B3844F
:103CD800E7407C3C8356CB002328940885077CBCAE
:103CE80083576408B387D702D697B3D7470363E6E9
:103CF800F40A9D8C8327090023A09900829763E129
:103D0800A40A3385A440E34705F89707000083C752
:103D1800F74E63E6A7069717000023A7878C01458F
:103D2800B9A88357640837470F009306F723B3876A
:103D3800670313070724B697B3D7E702E3F6F4EE51
:103D480003278A002697B304F740F5B597070000C4
:103D580083A7C74EBE94DDBD83278B00998F3E9500
:103D680031B7A1452285975005E0E78040A6A30515
:103D7800A4029707000083A7E74981EF7D55F24029
:103D88006244D2444249B249224A924A024B0561EE
:103D98008280894515458297D5B71D8FBA9499BFFA
:103DA80083278B00BE94B1BF970600009386063721
:103DB8009C42B84B1377F78FB8CB984313678700AB
:103DC80098C39C4393D7374889C701000100010075
:103DD8000100170700000327A7331C4393F7F7CF09
:103DE80093E707101CC317060000032626341C4659
:103DF8003707CEFF7D17F98F1CC69C423707030093
:103E0800B8CB9707000083A7E73099CBD4439047F6
:103E18009842518F98C2944BDC4B9842D98F9CC2E0
:103E28009717000023AA079682809707000083A7A8
:103E3800E72E9C438D8BF9C74111B7E700E04AC0D4
:103E480003A9070026C23707200006C622C4AA8491
:103E58003379E90023A0E7180F10000017140000B9
:103E68001304C491584C8D47631AF7009707000054
:103E780083A7876A01468145454582971947639319
:103E8800E4048347140289CB8347040263969700AE
:103E980097170000A3840790584CA1476315F700B3
:103EA800930780101EB09707000023870714ED3D85
:103EB800B2402244B7E700E023A027119244024908
:103EC800410182809D47639BF40083471402E9D730
:103ED800034704028D47E311F7FC5DBF544C638927
:103EE800E600584C6306F700584CA147E31DF7FA63
:103EF80083471402CDFB5C4C2300F4028547A300E2
:083F0800F40255B782800000AD
:103F10002A8309CA83830500230073007D160503E5
:103F200085056DFA82809707FC1F83A7A7E1170715
:103F3000FC1F0327A7E001456313F7008280F623E7
:103F400099E2D62336959C43C5BF1707FC1F13077C
:103F5000E7FE1C435A23411193860711E117BA97D4
:103F600085651706FC1F232FD6DC1706FC1F2327A9
:103F7000F6DC06C69D051356370063F4E50013060C
:103F800000203387C6009705FC1F23ABE5DA6116D6
:103F900098C2D2A2239306001CC3998FE1175EA397
:103FA000231307004937B2409707FC1F2397A7F652
:103FB000410182809707FC1F83A7C7D81707FC1F02
:103FC0000327C7D701456313F7008280F62381E6F4
:103FD000D6233375D50A9C43FDB7184183A785FFC7
:103FE0006319B7001CC1FD5723AC05FE238FF5FEF6
:103FF0008280232CF6FEC5BF411122C437E400E0C5
:1040000026C204403707200006C6F98C2320E41896
:104010000F10000009E9232094101545B2402244F6
:104020009244410182800347E5FF9307F00F630646
:10403000F700232094101145D5B797C0FB1FE780E8
:10404000000F014523209410D1BF41114AC037E928
:1040500000E022C403240900B707200006C626C2D8
:104060007D8C2320F9180F10000089E5232089108A
:10407000154515A0AA849707FC1F83C7B7E92E85AD
:1040800063F5F400894763EE9700BD37B7E700E0BA
:1040900023A087100D45B2402244924402494101B9
:1040A000828083A785FF99E703C7E5FF9307F00F99
:1040B0006308F7009137B7E700E023A087104DBFF2
:1040C000238F95FE1705FC1F130505C897C0FB1F1E
:1040D000E780E016A165268597F0FB1FE780C08D7D
:1040E00001452320891045BF9707FC1F23AE07C455
:1040F00082804111B7E700E026C2844337072000E1
:1041000006C622C4F98C23A0E7180F1000009707F9
:10411000FC1F83A7A7E41704FC1F130424BA91C74C
:1041200082971C40AA971CC031A09707FC1F83A749
:10413000A7C2FDF70840B74703009387D73F330571
:10414000F502B7A72600938737ECB2403E9508C02A
:104150002244B7E700E023A09710924441018280F7
:10416000411122C406C69707FC1F83A7A7BE1704E8
:10417000FC1F130424DA89C782975C48AA975CC89D
:104180004848B240224441018280B7E700E09843AA
:10419000B706200023A0D718758F0F1000009706D0
:1041A000FC1F83C636D76370D5029706FC1F83A613
:1041B00066BB3325D5201621B3F5B6400EA123A04A
:1041C000E7100145828023A0E7100D4582807971B8
:1041D000B7E700E026D284433707200006D622D472
:1041E0004AD04ECE52CCF98C23A0E7180F10000015
:1041F000930705FF93F7F70F7D476363F70A31478E
:104200003307E5029707FC1F83A707B6BA979C43BD
:10421000C1CB135445003D893315A028AE89B34561
:10422000050822852EC697E0FB1FE780C0572A8924
:1042300039C9B2452285170AFC1F130A2AD5B1379E
:104240009707FC1F83A747B182978357CA002A8428
:1042500081463387370313060064B3B7370313056A
:104260000732B335E500BE95EF90A21DB307850078
:1042700083268A003E8763E4A70063E4D700338780
:10428000D7402324E900B7E700E023A097100145B9
:10429000B250225492540259F249624A45618280D6
:1042A000B7E700E023A097100945DDB7797122D464
:1042B00037E400E04AD003290400B707200006D6FF
:1042C00026D24ECE52CC56CA5AC85EC63379F900B1
:1042D0002320F4180F1000009707FC1F83C797C313
:1042E0006378F500970BFC1F83AB0BA763970B005C
:1042F000B7E700E023A0271199A0970AFC1F938A33
:10430000EAC803AB8A00B74736FE938707C83E9BCF
:1043100083D7CA002E8AAA84B385C702B289814690
:10432000B3B7C70213850532B335B5001306006471
:10433000BE95EF9002116370AB022320241101455A
:10434000B250225492540259F249624AD24A424B24
:10435000B24B45618280829B83D7CA002A841306B0
:104360000064B38537038146B3B73703138505323D
:10437000B335B500BE95EF90C20CB307850003A717
:104380008A003E8463E4A70063E4E7003384E740E7
:10439000D285268597E0FB1FE780E04001C900C574
:1043A000B7E700E023A02711054559BF93E504F0C6
:1043B0004145B3C5050897C0FB1FE78020CA11E936
:1043C0009707FC1F83A787BA85D7A68511458297D3
:1043D00005B71707FC1F1307A7981C4389EF08C3ED
:1043E00085472326050000C52311450104A11CB102
:1043F0002322050075B73E87DC47F5FF48C7CDB7D8
:104400007971B7E700E026D284433707200006D64B
:1044100022D44AD04ECE52CC56CA5AC85EC662C4C6
:1044200066C2F98C23A0E7180F10000035C12A8955
:104430002E8AB28AB6894144B14C170BFC1F130B6C
:10444000AB92130C0003B30B940383270B00DE978E
:104450009C43B9EF135544409375F4005686137589
:10446000F50FB315B028B3C50508893531C18327C9
:104470000B00DE9723A0270123A2470163840900D4
:1044800023808900B7E700E023A09710014521A011
:1044900023A097100945B250225492540259F24970
:1044A000624AD24A424BB24B224C924C45618280C6
:1044B0000504E31A84F9B7E700E023A0971021452B
:1044C000D9BF011122CC37E400E026CA04404AC813
:1044D0004EC652C406CEB70720002A892E8AB2895A
:1044E000FD8C2320F4180F100000C933D2854A85B3
:1044F00097E0FB1FE780202B01ED2320941021453E
:10450000F2406244D2444249B249224A0561828063
:104510009707FC1F83D747A8B38537032A8913065B
:1045200000648146B3B7370313850532B335B50050
:10453000BE95EF8012712322A9002320941001451B
:10454000C1B7011126CAB7E400E04AC803A90400B4
:1045500022CC4EC6B707200006CE52C4AA892E84AC
:104560003379F90023A0F4180F10000097E0FB1F27
:10457000E7806023170AFC1F130ACA991DE1A28570
:104580004E85213183470A006382370523A0241119
:104590001945F2406244D2444249B249224A056177
:1045A000828023110500A2854E85C53683470A0007
:1045B0006386370123A024110145E1BF17F7FB1FD4
:1045C000130727791E23C18F1EA3EDB797F7FB1F93
:1045D000938727789A23598C82A34DBF01114AC82B
:1045E00037E900E022CC03240900B707200006CEFB
:1045F00026CA4EC67D8C2320F9180F1000009307A1
:10460000F00263E7A704B144B304950297F9FB1FD6
:104610009389897583A70900A6979C4395CB9375C9
:10462000F5001181B315B028B3C50508193F83A75C
:1046300009000145A69723A0070023A20700232015
:104640008910F2406244D2444249B24905618280F5
:10465000B7E700E023A087100945E5B74111B7E7A8
:1046600000E026C2844306C622C437072000F98C26
:1046700023A0E7180F10000097E0FB1FE780A012AF
:1046800019E90145B2402244B7E700E023A09710A2
:10469000924441018280004597F7FB1F83A7C76BB7
:1046A00082979707FC1F9387678E6367A4029847DA
:1046B000B74636FE938606C83305A4403697E372A4
:1046C000E5FC13070064B335E502D22781463305C4
:1046D000E502EF8012577DB798473A94C9BF411160
:1046E00006C697F7FB1F23A7A7660295B240970758
:1046F000FC1F23ADA782014541018280914763E9F8
:10470000B7009707FC1F93872787B3C5F52088C19B
:1047100082804111514681451705FC1F1305C5854F
:1047200006C622C426C297F7FB1F23AB076297F782
:10473000FB1F23A1076297F7FB1F23AF076097F7C3
:10474000FB1F2387076097F7FB1F23A1076097C014
:10475000FB1FE780A0C613068002814517F5FB1FEB
:104760001305457B97C0FB1FE78040C5EFF0EFFDC9
:1047700097F7FB1F9387877CE82BFC3B17F4FB1F05
:104780001304447985453E958D473305F5029947D5
:1047900097F4FB1F9384445D39051375F50F28A02A
:1047A0003305F502130505243345050897C0FB1FA3
:1047B000E780C08A88C035C93020994781453306D3
:1047C000F6021306062497C0FB1FE78020BF9C401B
:1047D000382097F4FB1F93846458938707249CC068
:1047E000B347F72017F7FB1F232EF756F5381D2187
:1047F0001C30944017E6FB1F1306260333C7D7204F
:1048000010C3138717001377F70F17E6FB1F130664
:1048100066FB3347D72010C313873700890718B0CA
:1048200093F7F70FB3C7D72090C3B2402244924406
:104830004101828097F6FB1F9386C66D2A87BC22B2
:104840008832637DF5001306150097F7FB1F83A7D9
:10485000E75090B2B347F52098C382801305F00F5C
:1048600082801C41E5CB370700F07D8FB706002022
:1048700089476312D70E5A21411122C406C62A84E1
:1048800069C719469305F00F690597C0FB1FE780BC
:1048900000C605478D47630AE50A1C4491C758586E
:1048A000994745C7185C55C31306C003814517F5E2
:1048B000FB1F1305A56897C0FB1FE78020B01306F8
:1048C000C003A28517F5FB1F1305456797C0FB1FA3
:1048D000E78040A897F7FB1F93874766DA2701E731
:1048E00013070010DAA7F82719E30547F8A79A2B52
:1048F00019E36D479AABF83719E31547F8B7B82BAA
:1049000019E30547B8ABB83B19E3F837B8BBD83B58
:1049100011C7937637000983F4ABF8BBD82B19E3A2
:104920005547D8AB182C01E71307C00398AF9C5725
:1049300091C7829797F7FB1F2392A75EFD5717F742
:10494000FB1F2307F75CF1338147B24022443E85C9
:104950004101828089473E85828079714ECE97F9E8
:10496000FB1F9389A96283A7090006D622D426D209
:104970004AD052CC829713090064B335250303D67D
:10498000C900814617FAFB1F130ACA5832C63305FD
:104990002503EF80122B83248A012A840145638634
:1049A000840232463305944063EF840003A58900F6
:1049B0008146B335A9023305A902EF809228B307D7
:1049C000954033858700232C8A00B250225492549C
:1049D0000259F249624A45618280011122CC0A855E
:1049E0002E84414697950200938585DF06CEEFF031
:1049F0002FD218083324E420035704FFF240624406
:104A000097F7FB1F83D7675937450F00BA971305F0
:104A100005243355F5020561828097F7FB1F83D784
:104A2000C75751471D45637CF7027947194563789D
:104A3000F7021307200315456373F7021307B00449
:104A40001145637EF700130740060D456379F700B3
:104A50001307600909456374F70013B5B70F828027
:104A6000411122C426C22E84AA8406C6058CEFF00A
:104A70004FE8B327A402B240224433859700137550
:104A8000F50F924441018280411122C426C22E8436
:104A9000AA8406C6058CEFF0CFE5B327A402B24086
:104AA00022443385970033450508924441018280B2
:104AB000411122C426C22E84AA8406C6058CEFF0BA
:104AC0004FE33335A402B24022442695924441017B
:104AD000828097F7FB1F23ABA728828041114AC031
:104AE00017F9FB1F130989458327890206C622C4CB
:104AF00026C28DCF829797F4FB1F9384A4419E24F6
:104B00002A848DC733F7A70A33470708B3D7A70A04
:104B1000B3C70708B307F74051476359F700832726
:104B2000C90291C38297EF10622B82A4B240224443
:104B30009244024941018280011122CC97F7FB1F68
:104B400023A6072217F4FB1F1304443F5C5406CE30
:104B5000AA8581C72AC68297B245C1C19C41054535
:104B6000ADCB9C45BDC7DE25ADC7FE25BDC39C2989
:104B700081CB7C287838BA97634DF504DC41B1CB02
:104B80001306400217F5FB1F1305454097B0FB1FA6
:104B9000E780407C97F7FB1F9387473F984397F642
:104BA000FB1F23ABE61A183C19EFCA27930780575F
:104BB00037460F003305F50213060624814681456A
:104BC000EF80320808BC17050000130545D9013EE7
:104BD0000145F24062440561828097F7FB1F23A9DB
:104BE000073497F7FB1F9387673A17C7FB1F130715
:104BF00027DC98C337873200FD56130727A194C7D7
:104C0000D8C797F7FB1F238B0738B7C7004023A4EB
:104C1000D72649B7011122CC17F4FB1F1304043225
:104C2000084406CE26CA4AC801E90545F240624456
:104C3000D2444249056182805C58E5DB185C75D737
:104C40007000854582971844B247E300F7FE4A2476
:104C50009305E00417F9FB1F1309C92B97B0FB1F3D
:104C6000E780C03F2320A90269D152249305F00FA9
:104C7000814497B0FB1FE78060747C2403260902FF
:104C800063C1F402328597B0FB1FE780404A0145BB
:104C900097F7FB1F23A0072A97F7FB1F23AE0728D0
:104CA00071B74E241844B3879502898185043385F2
:104CB000E7001C5C08C28297C9B7011122CC17F427
:104CC000FB1F1304A4271C4426CA4EC656C206CE98
:104CD0004AC852C45AC0AA84AE89B28A6388071AE5
:104CE000585839CB1307F01F6366A71017FAFB1F3C
:104CF000130A4A2203290A02631209044A24956509
:104D0000938515E097B0FB1FE78040352320AA026A
:104D10002A861DC14E245C580844898182971C4410
:104D200003290A022322FA028947639EF402C1473B
:104D30009305090C6381F9042945BDA003274A02A4
:104D4000E384E7FE4A249565938525E097B0FB1F31
:104D5000E780C0302A896DD14E242A865C580844E9
:104D600089818297D1B78D47639AF404C14793052F
:104D7000490DE393F9FCB8219307A0056312F706E8
:104D80009E21639F97044E869105568597B0FB1F21
:104D9000E780405C83270A02638727014A8597B032
:104DA000FB1FE780C0380145F2406244D2444249CB
:104DB000B249224A924A024B056182809147639729
:104DC000F4009305890EE39999F675B793070010DF
:104DD000E394F4F6A147E3E137F79305090F61BFC8
:104DE00083270A02E38A27F54A8597B0FB1FE780ED
:104DF000003499B71D67637FE506130705E0994600
:104E00003347D702562417FBFB1F130BAB10330796
:104E1000D702330AF70083274B0263964701032921
:104E20000B02631109024A249305E00497B0FB1FAB
:104E3000E780C0222A8909D14E245C582A868981BC
:104E40005285829791451307A00593F5C50FB307C7
:104E5000B900B4236399E602962363949602910500
:104E60004E86CA95568597B0FB1FE780A04E8327D4
:104E70000B021DB7A166F916E3E0A6EC3307E54087
:104E800051B7AC33D9B783270B02A9BF97F5FB1FE6
:104E900083A5450AE38205EA91479306A00593F7A7
:104EA000C70F3387F5003023E318D6E81223631BBE
:104EB000960091074E86BE95568597B0FB1FE780FA
:104EC0006049D5B53C33E1BF97F7FB1F93870707D0
:104ED000984721C7985F31C385466310D5044111B7
:104EE00022C417F4FB1F1304E402105006C615C2B7
:104EF000CE27485089810297085097B0FB1FE78062
:104F0000002397F7FB1F23A7070297F7FB1F23A593
:104F10000702B240224441018280828001114AC8C6
:104F200017F9FB1F130989014EC68329890022CC7A
:104F300026CA52C406CE56C2AA842E84328A638DF3
:104F4000091A8327890399EB2945F2406244D24428
:104F50004249B249224A924A056182808327490325
:104F6000E5D79307F01F63E0A70C97F9FB1F938920
:104F700069FA83A7090295CF0325890083A749020F
:104F80006395A7048947639FF404C147E31EF4FABD
:104F900003A509021305050C9307A0053CA106A172
:104FA0002286D285110597B0FB1FE780A03A014504
:104FB00069BF0355C9009305E00497B0FB1FE78064
:104FC000E00923A0A9024DF941B78355C900832701
:104FD000490303A60902898182978327890023A2B6
:104FE000F9024DB78D47639AF400C147E31EF4F40C
:104FF00003A509021305450D45B791476399F400D0
:10500000E31494F403A509021305850E71B7930701
:105010000010E39BF4F2A147E3E887F203A509023D
:105020001305050F95BF9D676373F506930705E0AC
:105030001947B3C7E7020357C90097FAFB1F938AC2
:105040006AEDB387E702BE9983A70A02A1CB83A7C3
:105050004A026391370703A50A0291479305A00509
:105060001308F00F13F7C70FB306E500B022631360
:10507000B60683D80600B032639C9804B307F640A6
:1050800063C6870411072286D2853A9529BF216716
:105090007917E36BA7EAB307F54071BF0355C90061
:1050A0009305E00497B0FB1FE78040FB23A0AA0212
:1050B00059FD59BD8355C9008327490303A60A0238
:1050C00089814E85829723A23A0371B72390060106
:1050D000B28749BF3386870011061308F00B63744B
:1050E000C8002D459DB5ACA213063400719A110677
:1050F000B29786A2BCB279B797F9FB1F938989E171
:1051000083A709029DCB03A5090291471308A005B7
:105110009305F00F13F7C70FB306E500B022631035
:10512000060583D80600B03263979800B307F640AF
:10513000E3DA87F48EA2B287F1BF8347E900035513
:10514000C9009305E0043305F5023345050897B01F
:10515000FB1FE780A0F023A0A90255F5F5B3035685
:10516000C9008345E900B385C5023386870011066F
:10517000E3E9C5F62381060185BF014582809C21B4
:105180001CA1BE211CB1BE21A1833CA1DC213CB1EC
:105190001145828097F7FB1F23AE07BC97F7FB1FD3
:1051A00023A807BC82800DCD411122C426C206C6A9
:1051B000AA842E84014585C1228541469785020037
:1051C0009385056597B0FB1FE780C0189C200545B7
:1051D0005CA49C305CB4B240224492444101828081
:1051E00001458280011122CC26CA06CE8947AA84B5
:1051F0003284639EF5006383B6024147814763951D
:10520000E6048A854D3741468A8522850DA84147A7
:105210006392E504638FF600639EB6022E86A28534
:105220006244F2402685D244056117B3FB1F670034
:10523000E3238A853285853F41468A85268597B056
:10524000FB1FE780A022AA87F2406244D2443E8539
:10525000056182808147CDBF97F7FB1F23AAA7B0C6
:10526000828097F7FB1F23A7A7B08280011122CC71
:10527000622106CE26CA4AC84EC63DC8832985008B
:105280002A88AE8403C90900814713174960635512
:105290000702B147054563F68704035528005114FA
:1052A000334404084E8633878900A2868545EFB0D3
:1052B0007001B337A0008507135569487D14137931
:1052C000F903334404089CA088B023812401C2A0C0
:1052D000014719C01387190098C409476383E70081
:1052E0000145F2406244D2444249B249056182809C
:1052F0000545C5BFC167F917630AF502D94763F7CA
:10530000B702011122CC2EC606CE2A84EF90600689
:10531000B2456368B50022856244F24005616FA022
:10532000407BF240624405450561828005458280EC
:10533000C167F9176314F5006F90A003411106C609
:10534000EFA0C06711E15D45B24041018280914705
:10535000639DF5001C211CA23C211831A207D98FA6
:105360003EA23C3101455CA2828011458280411100
:10537000814522C426C206C6AA849D232A8409E93F
:1053800097F7FB1F83A7C79E81C7F945268582979C
:10539000B2402285224492444101828039714ED626
:1053A00052D45AD05ECE06DE22DC26DA4AD856D255
:1053B0002A8A2E8BB289B68B0DE79D3F9145EF90DF
:1053C00060092A844D49854A19EDF2506254D2543D
:1053D000B259225A925A025BF24B4A8542592161D4
:1053E00082803A84814A230034018544630A0B0099
:1053F000DE8513051400029B93041500B3C4040852
:105400009399496063D30902C1455285EFA0406971
:10541000654915E533069400A6852285EFB0A030D6
:105420002A8911EDB104B3C4040891472C005285B8
:105430007C8422C66485EF90707E2A8959D5E386E4
:105440000AF8228597B0FB1FE78060CEBDBF01112F
:1054500022CC26CA4AC84EC606CE2A893284B689CC
:10546000353FAA840DE197F7FB1F83A7A79081CF53
:1054700005476317E40003C4090005041374F40F1F
:10548000A2854A858297F24062444249B249268504
:10549000D24405618280AE8601470546970500002B
:1054A000938525CE6DB79E211CA19E21A1831CB1A1
:1054B000094582809E211CA19E21A1831CB1BE2191
:1054C0003CA1BE21A1833CB1114582809E211CA13B
:1054D0009E21A1831CB1BE213CA1BE21A1833CB170
:1054E000DC315CA1FC215CB18A2519053345050836
:1054F00082809E211CA19E21A1831CB1094582802E
:105500009E211CA19E21A1831CB1BE213CA1BE21D4
:10551000A1833CB111458280CA21060533450508A7
:1055200082809E211CA19E21A1831CB1AA21090574
:105530003345050882809E211CA19E21A1831CB1B8
:10554000BE213CA1BE21A1833CB1CA211105334536
:10555000050882809C211CA1054582809E21411165
:1055600022C406C61CA19E212E841105A183A30E70
:10557000F5FEBE219505230FF5FE83D7D5FFA18348
:10558000A30FF5FE03C6F5FF97B0FB1FE78080DC95
:105590004820B24022441105410182808947639925
:1055A000F5001C3118210145A207D98F1EA2828067
:1055B000114582809A21011106CE22CC2EC6D947F0
:1055C00063F4E7022A84EF80D05AB2469E22636DCC
:1055D000F50022856244F240014709469705000024
:1055E0009385A5EC05615DBBF24062440945056108
:1055F0008280AA87A9C11421FD150547B3C50508F6
:105600006398E60013D725008D89114589CD8280E6
:10561000094711456392E602494533D7A502B3F520
:10562000A502114591E9114501CB850734A21AA2C3
:105630005CC20145828011458280AE8601471146D9
:1056400097050000938545E791BB13F73500AA87BE
:1056500001EB8981114591C50EA25CC20145828092
:1056600011458280D8218947631BF702011122CCA2
:105670002A84C84506CEAE8601C92EC69D4597B080
:10568000FB1FE78040B8B2462A8722856244F24079
:105690001946970500009385A5E3056101B3094507
:1056A000828099E1114582801C2105473EA2E37B5F
:1056B000F7FEFD1593F5F50F33D7F502B387E70233
:1056C000E392F5FE050548C21AA201458280DC215D
:1056D0000947AE866385E70041476399E7000147C4
:1056E0002146970500009385A5E74DB909458280BD
:1056F0000EA291E1014548C201458280AE86014774
:10570000294697050000938505DF49B90EA291E16E
:10571000014548C201458280AE8601473146970562
:105720000000938525DE9DB90EA291E1014548C296
:1057300001458280DA21854763FFE702011122CC0F
:105740002A84884106CE2EC615C1854597B0FB1F19
:10575000E78060AB2A8722856244B246F240394630
:1057600097050000938585DB05610DB9F240624421
:1057700009450561828009458280AA878DC5182167
:105780008D46114563F2E602FD15B3C50508B3C6A3
:10579000E5023308D70263990501850716A23AA2EC
:1057A0005CC20145828011458280DC210947AE86BA
:1057B0006385E70041476399E70001474146970544
:1057C00000009385E5D9D9BE094582803335B00004
:1057D0000A058280011122CC26CA06CE982585476B
:1057E000AA842E844946631FF70099363E20491546
:1057F0001306200963C8A700F2406244D244094559
:1058000005618280183485476314F7001366060427
:10581000484001C98D4532C697B0FB1FE780A09E66
:105820003246A2866244F2402A872685D2449705F2
:105830000000938545CF056195B68D4763F7B702A4
:105840001C311821F115A207D98F1EA23C31382135
:10585000B3C50508A207D98F014799C113074500B1
:105860003EA24EA218C601458280114582800111D8
:1058700022CC2A84884506CEAE8601C92EC695451F
:1058800097B0FB1FE7802098B2462A8722856244A2
:10589000F240594697050000938525CA0561FDBC75
:1058A0003335B0000A058280AE8601476146970510
:1058B0000000938565CADDB48547114563F1D702C1
:1058C0001C320C220945A207CD8F81456384A600B6
:1058D00093052600F9161EA336A34CC3014582800A
:1058E000014781467946814555BC9E211CA19E21D8
:1058F000A1831CB109458280BC2105471CA18A21D6
:105900006397E7000A050505334505088280C94706
:105910003305F502CDBF8A210A053345050882808B
:10592000BE211CA18A21BE213305F50205053345A0
:10593000050882808A2182808A2182808A21828051
:10594000BE211CA18A21BE213305F5020505334580
:10595000050882809E211CA19E21A1831CB1BE212D
:105960003CA1BE21A1833CB1CA21110533450508E4
:1059700082809E211CA19E21A1831CB1AA21090520
:10598000334505088280894711456398F6001C322B
:1059900014220145A207D58F1EA382809A21D947E0
:1059A000AE8663F9E70001470D4697050000938531
:1059B00005F471BC094582801145639DA6001C3227
:1059C00014220145A207D58F1EA33C323422A20720
:1059D000D58F3EA38280BC210547FD1793F7F70FB3
:1059E0006361F7049E2195CF011122CC2A84C8411E
:1059F00006CE2EC615C1894597B0FB1FE780A08053
:105A00002A8722856244B246F24015469705000077
:105A10009385C5EE056125BCF240624409450561E8
:105A2000828009458280954763F0D706411122C4E0
:105A300026C24AC006C61C323A841822A207B28483
:105A4000D98F1EA03C32382293854400A207D98FFB
:105A50003EA089475CA0094613055400368997B0DB
:105A6000FB1FE780208F194781476304E900938774
:105A70006400691923142401B2405CC42244924496
:105A80000249014541018280114582809E2195CFC6
:105A9000011122CC2A84C84106CE2EC615C18545E7
:105AA00097A0FB1FE78020762A8722856244B246B2
:105AB000F2401D4697050000938525E6056141BA31
:105AC000F240624409450561828009458280994718
:105AD000B2856388F600D147114541466384F600DC
